{
  "_format": "hh-sol-artifact-1",
  "contractName": "TellerNFTDictionary",
  "sourceName": "contracts/TellerNftDictionary.sol",
  "abi": [
    {
      "inputs": [],
      "stateMutability": "nonpayable",
      "type": "constructor"
    },
    {
      "anonymous": false,
      "inputs": [
        {
          "indexed": true,
          "internalType": "address",
          "name": "owner",
          "type": "address"
        },
        {
          "indexed": true,
          "internalType": "address",
          "name": "approved",
          "type": "address"
        },
        {
          "indexed": true,
          "internalType": "uint256",
          "name": "tokenId",
          "type": "uint256"
        }
      ],
      "name": "Approval",
      "type": "event"
    },
    {
      "anonymous": false,
      "inputs": [
        {
          "indexed": true,
          "internalType": "address",
          "name": "owner",
          "type": "address"
        },
        {
          "indexed": true,
          "internalType": "address",
          "name": "operator",
          "type": "address"
        },
        {
          "indexed": false,
          "internalType": "bool",
          "name": "approved",
          "type": "bool"
        }
      ],
      "name": "ApprovalForAll",
      "type": "event"
    },
    {
      "anonymous": false,
      "inputs": [
        {
          "indexed": true,
          "internalType": "bytes32",
          "name": "role",
          "type": "bytes32"
        },
        {
          "indexed": true,
          "internalType": "bytes32",
          "name": "previousAdminRole",
          "type": "bytes32"
        },
        {
          "indexed": true,
          "internalType": "bytes32",
          "name": "newAdminRole",
          "type": "bytes32"
        }
      ],
      "name": "RoleAdminChanged",
      "type": "event"
    },
    {
      "anonymous": false,
      "inputs": [
        {
          "indexed": true,
          "internalType": "bytes32",
          "name": "role",
          "type": "bytes32"
        },
        {
          "indexed": true,
          "internalType": "address",
          "name": "account",
          "type": "address"
        },
        {
          "indexed": true,
          "internalType": "address",
          "name": "sender",
          "type": "address"
        }
      ],
      "name": "RoleGranted",
      "type": "event"
    },
    {
      "anonymous": false,
      "inputs": [
        {
          "indexed": true,
          "internalType": "bytes32",
          "name": "role",
          "type": "bytes32"
        },
        {
          "indexed": true,
          "internalType": "address",
          "name": "account",
          "type": "address"
        },
        {
          "indexed": true,
          "internalType": "address",
          "name": "sender",
          "type": "address"
        }
      ],
      "name": "RoleRevoked",
      "type": "event"
    },
    {
      "anonymous": false,
      "inputs": [
        {
          "indexed": true,
          "internalType": "address",
          "name": "from",
          "type": "address"
        },
        {
          "indexed": true,
          "internalType": "address",
          "name": "to",
          "type": "address"
        },
        {
          "indexed": true,
          "internalType": "uint256",
          "name": "tokenId",
          "type": "uint256"
        }
      ],
      "name": "Transfer",
      "type": "event"
    },
    {
      "inputs": [],
      "name": "ADMIN",
      "outputs": [
        {
          "internalType": "bytes32",
          "name": "",
          "type": "bytes32"
        }
      ],
      "stateMutability": "view",
      "type": "function"
    },
    {
      "inputs": [],
      "name": "DEFAULT_ADMIN_ROLE",
      "outputs": [
        {
          "internalType": "bytes32",
          "name": "",
          "type": "bytes32"
        }
      ],
      "stateMutability": "view",
      "type": "function"
    },
    {
      "inputs": [
        {
          "internalType": "address",
          "name": "to",
          "type": "address"
        },
        {
          "internalType": "uint256",
          "name": "tokenId",
          "type": "uint256"
        }
      ],
      "name": "approve",
      "outputs": [],
      "stateMutability": "nonpayable",
      "type": "function"
    },
    {
      "inputs": [
        {
          "internalType": "address",
          "name": "owner",
          "type": "address"
        }
      ],
      "name": "balanceOf",
      "outputs": [
        {
          "internalType": "uint256",
          "name": "",
          "type": "uint256"
        }
      ],
      "stateMutability": "view",
      "type": "function"
    },
    {
      "inputs": [
        {
          "internalType": "uint256",
          "name": "tokenId",
          "type": "uint256"
        }
      ],
      "name": "getApproved",
      "outputs": [
        {
          "internalType": "address",
          "name": "",
          "type": "address"
        }
      ],
      "stateMutability": "view",
      "type": "function"
    },
    {
      "inputs": [
        {
          "internalType": "bytes32",
          "name": "role",
          "type": "bytes32"
        }
      ],
      "name": "getRoleAdmin",
      "outputs": [
        {
          "internalType": "bytes32",
          "name": "",
          "type": "bytes32"
        }
      ],
      "stateMutability": "view",
      "type": "function"
    },
    {
      "inputs": [
        {
          "internalType": "uint256",
          "name": "index",
          "type": "uint256"
        }
      ],
      "name": "getTier",
      "outputs": [
        {
          "components": [
            {
              "internalType": "uint256",
              "name": "baseLoanSize",
              "type": "uint256"
            },
            {
              "internalType": "string[]",
              "name": "hashes",
              "type": "string[]"
            },
            {
              "internalType": "address",
              "name": "contributionAsset",
              "type": "address"
            },
            {
              "internalType": "uint256",
              "name": "contributionSize",
              "type": "uint256"
            },
            {
              "internalType": "uint8",
              "name": "contributionMultiplier",
              "type": "uint8"
            }
          ],
          "internalType": "struct TellerNFTDictionary.Tier",
          "name": "tier_",
          "type": "tuple"
        }
      ],
      "stateMutability": "view",
      "type": "function"
    },
    {
      "inputs": [
        {
          "internalType": "uint256",
          "name": "tierIndex",
          "type": "uint256"
        }
      ],
      "name": "getTierHashes",
      "outputs": [
        {
          "internalType": "string[]",
          "name": "hashes_",
          "type": "string[]"
        }
      ],
      "stateMutability": "view",
      "type": "function"
    },
    {
      "inputs": [
        {
          "internalType": "uint256",
          "name": "tokenId",
          "type": "uint256"
        }
      ],
      "name": "getTokenTier",
      "outputs": [
        {
          "internalType": "uint256",
          "name": "index_",
          "type": "uint256"
        },
        {
          "components": [
            {
              "internalType": "uint256",
              "name": "baseLoanSize",
              "type": "uint256"
            },
            {
              "internalType": "string[]",
              "name": "hashes",
              "type": "string[]"
            },
            {
              "internalType": "address",
              "name": "contributionAsset",
              "type": "address"
            },
            {
              "internalType": "uint256",
              "name": "contributionSize",
              "type": "uint256"
            },
            {
              "internalType": "uint8",
              "name": "contributionMultiplier",
              "type": "uint8"
            }
          ],
          "internalType": "struct TellerNFTDictionary.Tier",
          "name": "tier_",
          "type": "tuple"
        }
      ],
      "stateMutability": "view",
      "type": "function"
    },
    {
      "inputs": [
        {
          "internalType": "bytes32",
          "name": "role",
          "type": "bytes32"
        },
        {
          "internalType": "address",
          "name": "account",
          "type": "address"
        }
      ],
      "name": "grantRole",
      "outputs": [],
      "stateMutability": "nonpayable",
      "type": "function"
    },
    {
      "inputs": [
        {
          "internalType": "bytes32",
          "name": "role",
          "type": "bytes32"
        },
        {
          "internalType": "address",
          "name": "account",
          "type": "address"
        }
      ],
      "name": "hasRole",
      "outputs": [
        {
          "internalType": "bool",
          "name": "",
          "type": "bool"
        }
      ],
      "stateMutability": "view",
      "type": "function"
    },
    {
      "inputs": [
        {
          "internalType": "address",
          "name": "owner",
          "type": "address"
        },
        {
          "internalType": "address",
          "name": "operator",
          "type": "address"
        }
      ],
      "name": "isApprovedForAll",
      "outputs": [
        {
          "internalType": "bool",
          "name": "",
          "type": "bool"
        }
      ],
      "stateMutability": "view",
      "type": "function"
    },
    {
      "inputs": [],
      "name": "name",
      "outputs": [
        {
          "internalType": "string",
          "name": "",
          "type": "string"
        }
      ],
      "stateMutability": "view",
      "type": "function"
    },
    {
      "inputs": [
        {
          "internalType": "uint256",
          "name": "tokenId",
          "type": "uint256"
        }
      ],
      "name": "ownerOf",
      "outputs": [
        {
          "internalType": "address",
          "name": "",
          "type": "address"
        }
      ],
      "stateMutability": "view",
      "type": "function"
    },
    {
      "inputs": [
        {
          "internalType": "bytes32",
          "name": "role",
          "type": "bytes32"
        },
        {
          "internalType": "address",
          "name": "account",
          "type": "address"
        }
      ],
      "name": "renounceRole",
      "outputs": [],
      "stateMutability": "nonpayable",
      "type": "function"
    },
    {
      "inputs": [
        {
          "internalType": "bytes32",
          "name": "role",
          "type": "bytes32"
        },
        {
          "internalType": "address",
          "name": "account",
          "type": "address"
        }
      ],
      "name": "revokeRole",
      "outputs": [],
      "stateMutability": "nonpayable",
      "type": "function"
    },
    {
      "inputs": [
        {
          "internalType": "address",
          "name": "from",
          "type": "address"
        },
        {
          "internalType": "address",
          "name": "to",
          "type": "address"
        },
        {
          "internalType": "uint256",
          "name": "tokenId",
          "type": "uint256"
        }
      ],
      "name": "safeTransferFrom",
      "outputs": [],
      "stateMutability": "nonpayable",
      "type": "function"
    },
    {
      "inputs": [
        {
          "internalType": "address",
          "name": "from",
          "type": "address"
        },
        {
          "internalType": "address",
          "name": "to",
          "type": "address"
        },
        {
          "internalType": "uint256",
          "name": "tokenId",
          "type": "uint256"
        },
        {
          "internalType": "bytes",
          "name": "_data",
          "type": "bytes"
        }
      ],
      "name": "safeTransferFrom",
      "outputs": [],
      "stateMutability": "nonpayable",
      "type": "function"
    },
    {
      "inputs": [
        {
          "internalType": "address",
          "name": "operator",
          "type": "address"
        },
        {
          "internalType": "bool",
          "name": "approved",
          "type": "bool"
        }
      ],
      "name": "setApprovalForAll",
      "outputs": [],
      "stateMutability": "nonpayable",
      "type": "function"
    },
    {
      "inputs": [
        {
          "internalType": "uint256",
          "name": "index",
          "type": "uint256"
        },
        {
          "components": [
            {
              "internalType": "uint256",
              "name": "baseLoanSize",
              "type": "uint256"
            },
            {
              "internalType": "string[]",
              "name": "hashes",
              "type": "string[]"
            },
            {
              "internalType": "address",
              "name": "contributionAsset",
              "type": "address"
            },
            {
              "internalType": "uint256",
              "name": "contributionSize",
              "type": "uint256"
            },
            {
              "internalType": "uint8",
              "name": "contributionMultiplier",
              "type": "uint8"
            }
          ],
          "internalType": "struct TellerNFTDictionary.Tier",
          "name": "newTier",
          "type": "tuple"
        }
      ],
      "name": "setTier",
      "outputs": [],
      "stateMutability": "nonpayable",
      "type": "function"
    },
    {
      "inputs": [
        {
          "internalType": "bytes4",
          "name": "interfaceId",
          "type": "bytes4"
        }
      ],
      "name": "supportsInterface",
      "outputs": [
        {
          "internalType": "bool",
          "name": "",
          "type": "bool"
        }
      ],
      "stateMutability": "view",
      "type": "function"
    },
    {
      "inputs": [],
      "name": "symbol",
      "outputs": [
        {
          "internalType": "string",
          "name": "",
          "type": "string"
        }
      ],
      "stateMutability": "view",
      "type": "function"
    },
    {
      "inputs": [
        {
          "internalType": "uint256",
          "name": "tokenId",
          "type": "uint256"
        }
      ],
      "name": "tokenBaseLoanSize",
      "outputs": [
        {
          "internalType": "uint256",
          "name": "",
          "type": "uint256"
        }
      ],
      "stateMutability": "view",
      "type": "function"
    },
    {
      "inputs": [
        {
          "internalType": "uint256",
          "name": "tokenId",
          "type": "uint256"
        }
      ],
      "name": "tokenContributionAsset",
      "outputs": [
        {
          "internalType": "address",
          "name": "",
          "type": "address"
        }
      ],
      "stateMutability": "view",
      "type": "function"
    },
    {
      "inputs": [
        {
          "internalType": "uint256",
          "name": "tokenId",
          "type": "uint256"
        }
      ],
      "name": "tokenContributionMultiplier",
      "outputs": [
        {
          "internalType": "uint256",
          "name": "",
          "type": "uint256"
        }
      ],
      "stateMutability": "view",
      "type": "function"
    },
    {
      "inputs": [
        {
          "internalType": "uint256",
          "name": "tokenId",
          "type": "uint256"
        }
      ],
      "name": "tokenContributionSize",
      "outputs": [
        {
          "internalType": "uint256",
          "name": "",
          "type": "uint256"
        }
      ],
      "stateMutability": "view",
      "type": "function"
    },
    {
      "inputs": [
        {
          "internalType": "uint256",
          "name": "tokenId",
          "type": "uint256"
        }
      ],
      "name": "tokenURI",
      "outputs": [
        {
          "internalType": "string",
          "name": "",
          "type": "string"
        }
      ],
      "stateMutability": "view",
      "type": "function"
    },
    {
      "inputs": [
        {
          "internalType": "uint256",
          "name": "tokenId",
          "type": "uint256"
        }
      ],
      "name": "tokenURIHash",
      "outputs": [
        {
          "internalType": "string",
          "name": "",
          "type": "string"
        }
      ],
      "stateMutability": "view",
      "type": "function"
    },
    {
      "inputs": [
        {
          "internalType": "address",
          "name": "from",
          "type": "address"
        },
        {
          "internalType": "address",
          "name": "to",
          "type": "address"
        },
        {
          "internalType": "uint256",
          "name": "tokenId",
          "type": "uint256"
        }
      ],
      "name": "transferFrom",
      "outputs": [],
      "stateMutability": "nonpayable",
      "type": "function"
    }
  ],
  "bytecode": "0x60806040523480156200001157600080fd5b506200003e7fdf8b4c520ffe197c5343c6f5aec59570151ef9a492f2c624fd45ddde6135ec423362000044565b620000f8565b62000050828262000054565b5050565b60008281526097602090815260408083206001600160a01b038516845290915290205460ff16620000505760008281526097602090815260408083206001600160a01b03851684529091529020805460ff19166001179055620000b43390565b6001600160a01b0316816001600160a01b0316837f2f8788117e7eff1d82e926ec794901d17c78024a50270940304540a733656f0d60405160405180910390a45050565b6123f080620001086000396000f3fe608060405234801561001057600080fd5b50600436106101ce5760003560e01c806362a5723311610104578063b88d4fde116100a2578063d300133911610071578063d30013391461045d578063d547741f14610470578063e985e9c514610483578063f40898ef146104bf576101ce565b8063b88d4fde146103f6578063c26b265f14610409578063c87b56dd1461042a578063cbee53a31461043d576101ce565b806391d14854116100de57806391d14854146103c057806395d89b41146103d3578063a217fddf146103db578063a22cb465146103e3576101ce565b806362a57233146103675780636352211e1461039a57806370a08231146103ad576101ce565b806324db57f81161017157806336568abe1161014b57806336568abe1461030e57806342842e0e1461032157806346765a57146103345780634f062c5a14610347576101ce565b806324db57f8146102a75780632a0acc6a146102d45780632f2ff15d146102fb576101ce565b8063081812fc116101ad578063081812fc14610231578063095ea7b31461025c57806323b872dd14610271578063248a9ca314610284576101ce565b806284c795146101d357806301ffc9a7146101f957806306fdde031461021c575b600080fd5b6101e66101e1366004611d99565b6104f8565b6040519081526020015b60405180910390f35b61020c610207366004611dd3565b61051d565b60405190151581526020016101f0565b610224610557565b6040516101f09190612140565b61024461023f366004611d99565b6105e9565b6040516001600160a01b0390911681526020016101f0565b61026f61026a366004611d70565b610683565b005b61026f61027f366004611c82565b610799565b6101e6610292366004611d99565b60009081526097602052604090206001015490565b6101e66102b5366004611d99565b600090815260ca6020908152604080832054835260c990915290205490565b6101e67fdf8b4c520ffe197c5343c6f5aec59570151ef9a492f2c624fd45ddde6135ec4281565b61026f610309366004611db1565b6107ca565b61026f61031c366004611db1565b6107f1565b61026f61032f366004611c82565b61086f565b61026f610342366004611e0b565b61088a565b61035a610355366004611d99565b610976565b6040516101f091906121f6565b6101e6610375366004611d99565b600090815260ca6020908152604080832054835260c990915290206004015460ff1690565b6102446103a8366004611d99565b610ab0565b6101e66103bb366004611c36565b610b27565b61020c6103ce366004611db1565b610bae565b610224610bd9565b6101e6600081565b61026f6103f1366004611d36565b610be8565b61026f610404366004611cbd565b610cba565b61041c610417366004611d99565b610cf2565b6040516101f0929190612209565b610224610438366004611d99565b610e32565b61045061044b366004611d99565b610f1a565b6040516101f091906120df565b61022461046b366004611d99565b611009565b61026f61047e366004611db1565b6110f3565b61020c610491366004611c50565b6001600160a01b039182166000908152606a6020908152604080832093909416825291909152205460ff1690565b6102446104cd366004611d99565b600090815260ca6020908152604080832054835260c99091529020600201546001600160a01b031690565b600081815260ca6020908152604080832054835260c99091529020600301545b919050565b60006001600160e01b03198216630c3e4d3160e31b1480610542575061054282611119565b80610551575061055182611169565b92915050565b606060658054610566906122f8565b80601f0160208091040260200160405190810160405280929190818152602001828054610592906122f8565b80156105df5780601f106105b4576101008083540402835291602001916105df565b820191906000526020600020905b8154815290600101906020018083116105c257829003601f168201915b5050505050905090565b6000818152606760205260408120546001600160a01b03166106675760405162461bcd60e51b815260206004820152602c60248201527f4552433732313a20617070726f76656420717565727920666f72206e6f6e657860448201526b34b9ba32b73a103a37b5b2b760a11b60648201526084015b60405180910390fd5b506000908152606960205260409020546001600160a01b031690565b600061068e82610ab0565b9050806001600160a01b0316836001600160a01b031614156106fc5760405162461bcd60e51b815260206004820152602160248201527f4552433732313a20617070726f76616c20746f2063757272656e74206f776e656044820152603960f91b606482015260840161065e565b336001600160a01b038216148061071857506107188133610491565b61078a5760405162461bcd60e51b815260206004820152603860248201527f4552433732313a20617070726f76652063616c6c6572206973206e6f74206f7760448201527f6e6572206e6f7220617070726f76656420666f7220616c6c0000000000000000606482015260840161065e565b610794838361118e565b505050565b6107a333826111fc565b6107bf5760405162461bcd60e51b815260040161065e906121a5565b6107948383836112f3565b6000828152609760205260409020600101546107e781335b611493565b61079483836114f7565b6001600160a01b03811633146108615760405162461bcd60e51b815260206004820152602f60248201527f416363657373436f6e74726f6c3a2063616e206f6e6c792072656e6f756e636560448201526e103937b632b9903337b91039b2b63360891b606482015260840161065e565b61086b828261157d565b5050565b61079483838360405180602001604052806000815250610cba565b6108b47fdf8b4c520ffe197c5343c6f5aec59570151ef9a492f2c624fd45ddde6135ec42336103ce565b6108f75760405162461bcd60e51b81526020600482015260146024820152732a32b63632b927232a1d103737ba1030b236b4b760611b604482015260640161065e565b600082815260c96020908152604090912082518155828201518051919261092692600185019290910190611a2d565b5060408201516002820180546001600160a01b0319166001600160a01b03909216919091179055606082015160038201556080909101516004909101805460ff191660ff90921691909117905550565b61097e611a8a565b60c960008381526020019081526020016000206040518060a00160405290816000820154815260200160018201805480602002602001604051908101604052809291908181526020016000905b82821015610a775783829060005260206000200180546109ea906122f8565b80601f0160208091040260200160405190810160405280929190818152602001828054610a16906122f8565b8015610a635780601f10610a3857610100808354040283529160200191610a63565b820191906000526020600020905b815481529060010190602001808311610a4657829003601f168201915b5050505050815260200190600101906109cb565b5050509082525060028201546001600160a01b031660208201526003820154604082015260049091015460ff1660609091015292915050565b6000818152606760205260408120546001600160a01b0316806105515760405162461bcd60e51b815260206004820152602960248201527f4552433732313a206f776e657220717565727920666f72206e6f6e657869737460448201526832b73a103a37b5b2b760b91b606482015260840161065e565b60006001600160a01b038216610b925760405162461bcd60e51b815260206004820152602a60248201527f4552433732313a2062616c616e636520717565727920666f7220746865207a65604482015269726f206164647265737360b01b606482015260840161065e565b506001600160a01b031660009081526068602052604090205490565b60009182526097602090815260408084206001600160a01b0393909316845291905290205460ff1690565b606060668054610566906122f8565b6001600160a01b038216331415610c415760405162461bcd60e51b815260206004820152601960248201527f4552433732313a20617070726f766520746f2063616c6c657200000000000000604482015260640161065e565b336000818152606a602090815260408083206001600160a01b0387168085529252909120805460ff1916841515179055906001600160a01b03167f17307eab39ab6107e8899845ad3d59bd9653f200f220920489ca2b5937696c3183604051610cae911515815260200190565b60405180910390a35050565b610cc433836111fc565b610ce05760405162461bcd60e51b815260040161065e906121a5565b610cec848484846115e4565b50505050565b6000610cfc611a8a565b600083815260ca602090815260408083205480845260c98352818420825160a0810184528154815260018201805485518188028101880190965280865293985090959194868101949391929084015b82821015610df7578382906000526020600020018054610d6a906122f8565b80601f0160208091040260200160405190810160405280929190818152602001828054610d96906122f8565b8015610de35780601f10610db857610100808354040283529160200191610de3565b820191906000526020600020905b815481529060010190602001808311610dc657829003601f168201915b505050505081526020019060010190610d4b565b5050509082525060028201546001600160a01b031660208201526003820154604082015260049091015460ff16606090910152919391925050565b6000818152606760205260409020546060906001600160a01b0316610eb15760405162461bcd60e51b815260206004820152602f60248201527f4552433732314d657461646174613a2055524920717565727920666f72206e6f60448201526e3732bc34b9ba32b73a103a37b5b2b760891b606482015260840161065e565b6000610ec860408051602081019091526000815290565b90506000815111610ee85760405180602001604052806000815250610f13565b80610ef284611617565b604051602001610f03929190611ffe565b6040516020818303038152906040525b9392505050565b606060c96000838152602001908152602001600020600101805480602002602001604051908101604052809291908181526020016000905b82821015610ffe578382906000526020600020018054610f71906122f8565b80601f0160208091040260200160405190810160405280929190818152602001828054610f9d906122f8565b8015610fea5780601f10610fbf57610100808354040283529160200191610fea565b820191906000526020600020905b815481529060010190602001808311610fcd57829003601f168201915b505050505081526020019060010190610f52565b505050509050919050565b600081815260ca6020908152604080832054835260c99091529020600101805460609190819061103a908590611732565b8154811061105857634e487b7160e01b600052603260045260246000fd5b90600052602060002001805461106d906122f8565b80601f0160208091040260200160405190810160405280929190818152602001828054611099906122f8565b80156110e65780601f106110bb576101008083540402835291602001916110e6565b820191906000526020600020905b8154815290600101906020018083116110c957829003601f168201915b5050505050915050919050565b60008281526097602052604090206001015461110f81336107e2565b610794838361157d565b60006001600160e01b031982166380ac58cd60e01b148061114a57506001600160e01b03198216635b5e139f60e01b145b8061055157506301ffc9a760e01b6001600160e01b0319831614610551565b60006001600160e01b03198216637965db0b60e01b1480610551575061055182611119565b600081815260696020526040902080546001600160a01b0319166001600160a01b03841690811790915581906111c382610ab0565b6001600160a01b03167f8c5be1e5ebec7d5bd14f71427d1e84f3dd0314c0f7b2291e5b200ac8c7c3b92560405160405180910390a45050565b6000818152606760205260408120546001600160a01b03166112755760405162461bcd60e51b815260206004820152602c60248201527f4552433732313a206f70657261746f7220717565727920666f72206e6f6e657860448201526b34b9ba32b73a103a37b5b2b760a11b606482015260840161065e565b600061128083610ab0565b9050806001600160a01b0316846001600160a01b031614806112bb5750836001600160a01b03166112b0846105e9565b6001600160a01b0316145b806112eb57506001600160a01b038082166000908152606a602090815260408083209388168352929052205460ff165b949350505050565b826001600160a01b031661130682610ab0565b6001600160a01b03161461136e5760405162461bcd60e51b815260206004820152602960248201527f4552433732313a207472616e73666572206f6620746f6b656e2074686174206960448201526839903737ba1037bbb760b91b606482015260840161065e565b6001600160a01b0382166113d05760405162461bcd60e51b8152602060048201526024808201527f4552433732313a207472616e7366657220746f20746865207a65726f206164646044820152637265737360e01b606482015260840161065e565b6113db60008261118e565b6001600160a01b038316600090815260686020526040812080546001929061140490849061229e565b90915550506001600160a01b0382166000908152606860205260408120805460019290611432908490612253565b909155505060008181526067602052604080822080546001600160a01b0319166001600160a01b0386811691821790925591518493918716917fddf252ad1be2c89b69c2b068fc378daa952ba7f163c4a11628f55a4df523b3ef91a4505050565b61149d8282610bae565b61086b576114b5816001600160a01b0316601461173e565b6114c083602061173e565b6040516020016114d192919061202d565b60408051601f198184030181529082905262461bcd60e51b825261065e91600401612140565b6115018282610bae565b61086b5760008281526097602090815260408083206001600160a01b03851684529091529020805460ff191660011790556115393390565b6001600160a01b0316816001600160a01b0316837f2f8788117e7eff1d82e926ec794901d17c78024a50270940304540a733656f0d60405160405180910390a45050565b6115878282610bae565b1561086b5760008281526097602090815260408083206001600160a01b0385168085529252808320805460ff1916905551339285917ff6391f5c32d9c69d2a47ea670b442974b53935d1edc7fd64eb21e047a839171b9190a45050565b6115ef8484846112f3565b6115fb84848484611920565b610cec5760405162461bcd60e51b815260040161065e90612153565b60608161163c57506040805180820190915260018152600360fc1b6020820152610518565b8160005b8115611666578061165081612333565b915061165f9050600a8361226b565b9150611640565b60008167ffffffffffffffff81111561168f57634e487b7160e01b600052604160045260246000fd5b6040519080825280601f01601f1916602001820160405280156116b9576020820181803683370190505b5090505b84156112eb576116ce60018361229e565b91506116db600a8661234e565b6116e6906030612253565b60f81b81838151811061170957634e487b7160e01b600052603260045260246000fd5b60200101906001600160f81b031916908160001a90535061172b600a8661226b565b94506116bd565b6000610f13828461234e565b6060600061174d83600261227f565b611758906002612253565b67ffffffffffffffff81111561177e57634e487b7160e01b600052604160045260246000fd5b6040519080825280601f01601f1916602001820160405280156117a8576020820181803683370190505b509050600360fc1b816000815181106117d157634e487b7160e01b600052603260045260246000fd5b60200101906001600160f81b031916908160001a905350600f60fb1b8160018151811061180e57634e487b7160e01b600052603260045260246000fd5b60200101906001600160f81b031916908160001a905350600061183284600261227f565b61183d906001612253565b90505b60018111156118d1576f181899199a1a9b1b9c1cb0b131b232b360811b85600f166010811061187f57634e487b7160e01b600052603260045260246000fd5b1a60f81b8282815181106118a357634e487b7160e01b600052603260045260246000fd5b60200101906001600160f81b031916908160001a90535060049490941c936118ca816122e1565b9050611840565b508315610f135760405162461bcd60e51b815260206004820181905260248201527f537472696e67733a20686578206c656e67746820696e73756666696369656e74604482015260640161065e565b60006001600160a01b0384163b15611a2257604051630a85bd0160e11b81526001600160a01b0385169063150b7a02906119649033908990889088906004016120a2565b602060405180830381600087803b15801561197e57600080fd5b505af19250505080156119ae575060408051601f3d908101601f191682019092526119ab91810190611def565b60015b611a08573d8080156119dc576040519150601f19603f3d011682016040523d82523d6000602084013e6119e1565b606091505b508051611a005760405162461bcd60e51b815260040161065e90612153565b805181602001fd5b6001600160e01b031916630a85bd0160e11b1490506112eb565b506001949350505050565b828054828255906000526020600020908101928215611a7a579160200282015b82811115611a7a5782518051611a6a918491602090910190611ac5565b5091602001919060010190611a4d565b50611a86929150611b45565b5090565b6040518060a00160405280600081526020016060815260200160006001600160a01b0316815260200160008152602001600060ff1681525090565b828054611ad1906122f8565b90600052602060002090601f016020900481019282611af35760008555611b39565b82601f10611b0c57805160ff1916838001178555611b39565b82800160010185558215611b39579182015b82811115611b39578251825591602001919060010190611b1e565b50611a86929150611b62565b80821115611a86576000611b598282611b77565b50600101611b45565b5b80821115611a865760008155600101611b63565b508054611b83906122f8565b6000825580601f10611b955750611bb3565b601f016020900490600052602060002090810190611bb39190611b62565b50565b600067ffffffffffffffff831115611bd057611bd061238e565b611be3601f8401601f1916602001612222565b9050828152838383011115611bf757600080fd5b828260208301376000602084830101529392505050565b80356001600160a01b038116811461051857600080fd5b803560ff8116811461051857600080fd5b600060208284031215611c47578081fd5b610f1382611c0e565b60008060408385031215611c62578081fd5b611c6b83611c0e565b9150611c7960208401611c0e565b90509250929050565b600080600060608486031215611c96578081fd5b611c9f84611c0e565b9250611cad60208501611c0e565b9150604084013590509250925092565b60008060008060808587031215611cd2578081fd5b611cdb85611c0e565b9350611ce960208601611c0e565b925060408501359150606085013567ffffffffffffffff811115611d0b578182fd5b8501601f81018713611d1b578182fd5b611d2a87823560208401611bb6565b91505092959194509250565b60008060408385031215611d48578182fd5b611d5183611c0e565b915060208301358015158114611d65578182fd5b809150509250929050565b60008060408385031215611d82578182fd5b611d8b83611c0e565b946020939093013593505050565b600060208284031215611daa578081fd5b5035919050565b60008060408385031215611dc3578182fd5b82359150611c7960208401611c0e565b600060208284031215611de4578081fd5b8135610f13816123a4565b600060208284031215611e00578081fd5b8151610f13816123a4565b6000806040808486031215611e1e578283fd5b8335925060208085013567ffffffffffffffff80821115611e3d578485fd5b9086019060a08289031215611e50578485fd5b611e5a60a0612222565b823581528383013582811115611e6e578687fd5b8301601f81018a13611e7e578687fd5b803583811115611e9057611e9061238e565b611e9e868260051b01612222565b8181528681019450828701895b83811015611ee857813585018e603f820112611ec5578b8cfd5b611ed58f8b8301358d8401611bb6565b8852509588019590880190600101611eab565b50508387015250611efc9050838601611c0e565b8582015260608301356060820152611f1660808401611c25565b608082015280955050505050509250929050565b60008151808452611f428160208601602086016122b5565b601f01601f19169290920160200192915050565b600060a083018251845260208084015160a08287015282815180855260c08801915060c08160051b89010194508383019250855b81811015611fb85760bf19898703018352611fa6868551611f2a565b95509284019291840191600101611f8a565b50505050506040830151611fd760408601826001600160a01b03169052565b50606083015160608501526080830151611ff6608086018260ff169052565b509392505050565b600083516120108184602088016122b5565b8351908301906120248183602088016122b5565b01949350505050565b60007f416363657373436f6e74726f6c3a206163636f756e7420000000000000000000825283516120658160178501602088016122b5565b7001034b99036b4b9b9b4b733903937b6329607d1b60179184019182015283516120968160288401602088016122b5565b01602801949350505050565b6001600160a01b03858116825284166020820152604081018390526080606082018190526000906120d590830184611f2a565b9695505050505050565b6000602080830181845280855180835260408601915060408160051b8701019250838701855b8281101561213357603f19888603018452612121858351611f2a565b94509285019290850190600101612105565b5092979650505050505050565b600060208252610f136020830184611f2a565b60208082526032908201527f4552433732313a207472616e7366657220746f206e6f6e20455243373231526560408201527131b2b4bb32b91034b6b83632b6b2b73a32b960711b606082015260800190565b60208082526031908201527f4552433732313a207472616e736665722063616c6c6572206973206e6f74206f6040820152701ddb995c881b9bdc88185c1c1c9bdd9959607a1b606082015260800190565b600060208252610f136020830184611f56565b6000838252604060208301526112eb6040830184611f56565b604051601f8201601f1916810167ffffffffffffffff8111828210171561224b5761224b61238e565b604052919050565b6000821982111561226657612266612362565b500190565b60008261227a5761227a612378565b500490565b600081600019048311821515161561229957612299612362565b500290565b6000828210156122b0576122b0612362565b500390565b60005b838110156122d05781810151838201526020016122b8565b83811115610cec5750506000910152565b6000816122f0576122f0612362565b506000190190565b600181811c9082168061230c57607f821691505b6020821081141561232d57634e487b7160e01b600052602260045260246000fd5b50919050565b600060001982141561234757612347612362565b5060010190565b60008261235d5761235d612378565b500690565b634e487b7160e01b600052601160045260246000fd5b634e487b7160e01b600052601260045260246000fd5b634e487b7160e01b600052604160045260246000fd5b6001600160e01b031981168114611bb357600080fdfea2646970667358221220c3f95a6fd1fabf14ea540584a918cc18d1c8cd5508b4c84382af69da3a17056b64736f6c63430008030033",
  "linkReferences": {},
  "deployedLinkReferences": {}
}