{
  "_format": "hh-sol-artifact-1",
  "contractName": "TellerNFTDictionary",
  "sourceName": "contracts/TellerNftDictionary.sol",
  "abi": [
    {
      "inputs": [],
      "stateMutability": "nonpayable",
      "type": "constructor"
    },
    {
      "anonymous": false,
      "inputs": [
        {
          "indexed": true,
          "internalType": "address",
          "name": "owner",
          "type": "address"
        },
        {
          "indexed": true,
          "internalType": "address",
          "name": "approved",
          "type": "address"
        },
        {
          "indexed": true,
          "internalType": "uint256",
          "name": "tokenId",
          "type": "uint256"
        }
      ],
      "name": "Approval",
      "type": "event"
    },
    {
      "anonymous": false,
      "inputs": [
        {
          "indexed": true,
          "internalType": "address",
          "name": "owner",
          "type": "address"
        },
        {
          "indexed": true,
          "internalType": "address",
          "name": "operator",
          "type": "address"
        },
        {
          "indexed": false,
          "internalType": "bool",
          "name": "approved",
          "type": "bool"
        }
      ],
      "name": "ApprovalForAll",
      "type": "event"
    },
    {
      "anonymous": false,
      "inputs": [
        {
          "indexed": true,
          "internalType": "bytes32",
          "name": "role",
          "type": "bytes32"
        },
        {
          "indexed": true,
          "internalType": "bytes32",
          "name": "previousAdminRole",
          "type": "bytes32"
        },
        {
          "indexed": true,
          "internalType": "bytes32",
          "name": "newAdminRole",
          "type": "bytes32"
        }
      ],
      "name": "RoleAdminChanged",
      "type": "event"
    },
    {
      "anonymous": false,
      "inputs": [
        {
          "indexed": true,
          "internalType": "bytes32",
          "name": "role",
          "type": "bytes32"
        },
        {
          "indexed": true,
          "internalType": "address",
          "name": "account",
          "type": "address"
        },
        {
          "indexed": true,
          "internalType": "address",
          "name": "sender",
          "type": "address"
        }
      ],
      "name": "RoleGranted",
      "type": "event"
    },
    {
      "anonymous": false,
      "inputs": [
        {
          "indexed": true,
          "internalType": "bytes32",
          "name": "role",
          "type": "bytes32"
        },
        {
          "indexed": true,
          "internalType": "address",
          "name": "account",
          "type": "address"
        },
        {
          "indexed": true,
          "internalType": "address",
          "name": "sender",
          "type": "address"
        }
      ],
      "name": "RoleRevoked",
      "type": "event"
    },
    {
      "anonymous": false,
      "inputs": [
        {
          "indexed": true,
          "internalType": "address",
          "name": "from",
          "type": "address"
        },
        {
          "indexed": true,
          "internalType": "address",
          "name": "to",
          "type": "address"
        },
        {
          "indexed": true,
          "internalType": "uint256",
          "name": "tokenId",
          "type": "uint256"
        }
      ],
      "name": "Transfer",
      "type": "event"
    },
    {
      "inputs": [],
      "name": "ADMIN",
      "outputs": [
        {
          "internalType": "bytes32",
          "name": "",
          "type": "bytes32"
        }
      ],
      "stateMutability": "view",
      "type": "function"
    },
    {
      "inputs": [],
      "name": "DEFAULT_ADMIN_ROLE",
      "outputs": [
        {
          "internalType": "bytes32",
          "name": "",
          "type": "bytes32"
        }
      ],
      "stateMutability": "view",
      "type": "function"
    },
    {
      "inputs": [
        {
          "components": [
            {
              "internalType": "uint256",
              "name": "baseLoanSize",
              "type": "uint256"
            },
            {
              "internalType": "string[]",
              "name": "hashes",
              "type": "string[]"
            },
            {
              "internalType": "address",
              "name": "contributionAsset",
              "type": "address"
            },
            {
              "internalType": "uint256",
              "name": "contributionSize",
              "type": "uint256"
            },
            {
              "internalType": "uint8",
              "name": "contributionMultiplier",
              "type": "uint8"
            }
          ],
          "internalType": "struct TellerNFTDictionary.Tier",
          "name": "newTier",
          "type": "tuple"
        }
      ],
      "name": "addTier",
      "outputs": [],
      "stateMutability": "nonpayable",
      "type": "function"
    },
    {
      "inputs": [
        {
          "internalType": "address",
          "name": "to",
          "type": "address"
        },
        {
          "internalType": "uint256",
          "name": "tokenId",
          "type": "uint256"
        }
      ],
      "name": "approve",
      "outputs": [],
      "stateMutability": "nonpayable",
      "type": "function"
    },
    {
      "inputs": [
        {
          "internalType": "address",
          "name": "owner",
          "type": "address"
        }
      ],
      "name": "balanceOf",
      "outputs": [
        {
          "internalType": "uint256",
          "name": "",
          "type": "uint256"
        }
      ],
      "stateMutability": "view",
      "type": "function"
    },
    {
      "inputs": [
        {
          "internalType": "uint256",
          "name": "tokenId",
          "type": "uint256"
        }
      ],
      "name": "getApproved",
      "outputs": [
        {
          "internalType": "address",
          "name": "",
          "type": "address"
        }
      ],
      "stateMutability": "view",
      "type": "function"
    },
    {
      "inputs": [
        {
          "internalType": "bytes32",
          "name": "role",
          "type": "bytes32"
        }
      ],
      "name": "getRoleAdmin",
      "outputs": [
        {
          "internalType": "bytes32",
          "name": "",
          "type": "bytes32"
        }
      ],
      "stateMutability": "view",
      "type": "function"
    },
    {
      "inputs": [
        {
          "internalType": "uint256",
          "name": "index",
          "type": "uint256"
        }
      ],
      "name": "getTier",
      "outputs": [
        {
          "components": [
            {
              "internalType": "uint256",
              "name": "baseLoanSize",
              "type": "uint256"
            },
            {
              "internalType": "string[]",
              "name": "hashes",
              "type": "string[]"
            },
            {
              "internalType": "address",
              "name": "contributionAsset",
              "type": "address"
            },
            {
              "internalType": "uint256",
              "name": "contributionSize",
              "type": "uint256"
            },
            {
              "internalType": "uint8",
              "name": "contributionMultiplier",
              "type": "uint8"
            }
          ],
          "internalType": "struct TellerNFTDictionary.Tier",
          "name": "tier_",
          "type": "tuple"
        }
      ],
      "stateMutability": "view",
      "type": "function"
    },
    {
      "inputs": [
        {
          "internalType": "uint256",
          "name": "tierIndex",
          "type": "uint256"
        }
      ],
      "name": "getTierHashes",
      "outputs": [
        {
          "internalType": "string[]",
          "name": "hashes_",
          "type": "string[]"
        }
      ],
      "stateMutability": "view",
      "type": "function"
    },
    {
      "inputs": [
        {
          "internalType": "uint256",
          "name": "tokenId",
          "type": "uint256"
        }
      ],
      "name": "getTokenTier",
      "outputs": [
        {
          "internalType": "uint256",
          "name": "index_",
          "type": "uint256"
        },
        {
          "components": [
            {
              "internalType": "uint256",
              "name": "baseLoanSize",
              "type": "uint256"
            },
            {
              "internalType": "string[]",
              "name": "hashes",
              "type": "string[]"
            },
            {
              "internalType": "address",
              "name": "contributionAsset",
              "type": "address"
            },
            {
              "internalType": "uint256",
              "name": "contributionSize",
              "type": "uint256"
            },
            {
              "internalType": "uint8",
              "name": "contributionMultiplier",
              "type": "uint8"
            }
          ],
          "internalType": "struct TellerNFTDictionary.Tier",
          "name": "tier_",
          "type": "tuple"
        }
      ],
      "stateMutability": "view",
      "type": "function"
    },
    {
      "inputs": [
        {
          "internalType": "bytes32",
          "name": "role",
          "type": "bytes32"
        },
        {
          "internalType": "address",
          "name": "account",
          "type": "address"
        }
      ],
      "name": "grantRole",
      "outputs": [],
      "stateMutability": "nonpayable",
      "type": "function"
    },
    {
      "inputs": [
        {
          "internalType": "bytes32",
          "name": "role",
          "type": "bytes32"
        },
        {
          "internalType": "address",
          "name": "account",
          "type": "address"
        }
      ],
      "name": "hasRole",
      "outputs": [
        {
          "internalType": "bool",
          "name": "",
          "type": "bool"
        }
      ],
      "stateMutability": "view",
      "type": "function"
    },
    {
      "inputs": [
        {
          "internalType": "address",
          "name": "owner",
          "type": "address"
        },
        {
          "internalType": "address",
          "name": "operator",
          "type": "address"
        }
      ],
      "name": "isApprovedForAll",
      "outputs": [
        {
          "internalType": "bool",
          "name": "",
          "type": "bool"
        }
      ],
      "stateMutability": "view",
      "type": "function"
    },
    {
      "inputs": [],
      "name": "name",
      "outputs": [
        {
          "internalType": "string",
          "name": "",
          "type": "string"
        }
      ],
      "stateMutability": "view",
      "type": "function"
    },
    {
      "inputs": [
        {
          "internalType": "uint256",
          "name": "tokenId",
          "type": "uint256"
        }
      ],
      "name": "ownerOf",
      "outputs": [
        {
          "internalType": "address",
          "name": "",
          "type": "address"
        }
      ],
      "stateMutability": "view",
      "type": "function"
    },
    {
      "inputs": [
        {
          "internalType": "bytes32",
          "name": "role",
          "type": "bytes32"
        },
        {
          "internalType": "address",
          "name": "account",
          "type": "address"
        }
      ],
      "name": "renounceRole",
      "outputs": [],
      "stateMutability": "nonpayable",
      "type": "function"
    },
    {
      "inputs": [
        {
          "internalType": "bytes32",
          "name": "role",
          "type": "bytes32"
        },
        {
          "internalType": "address",
          "name": "account",
          "type": "address"
        }
      ],
      "name": "revokeRole",
      "outputs": [],
      "stateMutability": "nonpayable",
      "type": "function"
    },
    {
      "inputs": [
        {
          "internalType": "address",
          "name": "from",
          "type": "address"
        },
        {
          "internalType": "address",
          "name": "to",
          "type": "address"
        },
        {
          "internalType": "uint256",
          "name": "tokenId",
          "type": "uint256"
        }
      ],
      "name": "safeTransferFrom",
      "outputs": [],
      "stateMutability": "nonpayable",
      "type": "function"
    },
    {
      "inputs": [
        {
          "internalType": "address",
          "name": "from",
          "type": "address"
        },
        {
          "internalType": "address",
          "name": "to",
          "type": "address"
        },
        {
          "internalType": "uint256",
          "name": "tokenId",
          "type": "uint256"
        },
        {
          "internalType": "bytes",
          "name": "_data",
          "type": "bytes"
        }
      ],
      "name": "safeTransferFrom",
      "outputs": [],
      "stateMutability": "nonpayable",
      "type": "function"
    },
    {
      "inputs": [
        {
          "internalType": "address",
          "name": "operator",
          "type": "address"
        },
        {
          "internalType": "bool",
          "name": "approved",
          "type": "bool"
        }
      ],
      "name": "setApprovalForAll",
      "outputs": [],
      "stateMutability": "nonpayable",
      "type": "function"
    },
    {
      "inputs": [
        {
          "internalType": "bytes4",
          "name": "interfaceId",
          "type": "bytes4"
        }
      ],
      "name": "supportsInterface",
      "outputs": [
        {
          "internalType": "bool",
          "name": "",
          "type": "bool"
        }
      ],
      "stateMutability": "view",
      "type": "function"
    },
    {
      "inputs": [],
      "name": "symbol",
      "outputs": [
        {
          "internalType": "string",
          "name": "",
          "type": "string"
        }
      ],
      "stateMutability": "view",
      "type": "function"
    },
    {
      "inputs": [
        {
          "internalType": "uint256",
          "name": "tokenId",
          "type": "uint256"
        }
      ],
      "name": "tokenBaseLoanSize",
      "outputs": [
        {
          "internalType": "uint256",
          "name": "",
          "type": "uint256"
        }
      ],
      "stateMutability": "view",
      "type": "function"
    },
    {
      "inputs": [
        {
          "internalType": "uint256",
          "name": "tokenId",
          "type": "uint256"
        }
      ],
      "name": "tokenContributionAsset",
      "outputs": [
        {
          "internalType": "address",
          "name": "",
          "type": "address"
        }
      ],
      "stateMutability": "view",
      "type": "function"
    },
    {
      "inputs": [
        {
          "internalType": "uint256",
          "name": "tokenId",
          "type": "uint256"
        }
      ],
      "name": "tokenContributionMultiplier",
      "outputs": [
        {
          "internalType": "uint256",
          "name": "",
          "type": "uint256"
        }
      ],
      "stateMutability": "view",
      "type": "function"
    },
    {
      "inputs": [
        {
          "internalType": "uint256",
          "name": "tokenId",
          "type": "uint256"
        }
      ],
      "name": "tokenContributionSize",
      "outputs": [
        {
          "internalType": "uint256",
          "name": "",
          "type": "uint256"
        }
      ],
      "stateMutability": "view",
      "type": "function"
    },
    {
      "inputs": [
        {
          "internalType": "uint256",
          "name": "tokenId",
          "type": "uint256"
        }
      ],
      "name": "tokenURI",
      "outputs": [
        {
          "internalType": "string",
          "name": "",
          "type": "string"
        }
      ],
      "stateMutability": "view",
      "type": "function"
    },
    {
      "inputs": [
        {
          "internalType": "uint256",
          "name": "tokenId",
          "type": "uint256"
        }
      ],
      "name": "tokenURIHash",
      "outputs": [
        {
          "internalType": "string",
          "name": "",
          "type": "string"
        }
      ],
      "stateMutability": "view",
      "type": "function"
    },
    {
      "inputs": [
        {
          "internalType": "address",
          "name": "from",
          "type": "address"
        },
        {
          "internalType": "address",
          "name": "to",
          "type": "address"
        },
        {
          "internalType": "uint256",
          "name": "tokenId",
          "type": "uint256"
        }
      ],
      "name": "transferFrom",
      "outputs": [],
      "stateMutability": "nonpayable",
      "type": "function"
    }
  ],
  "bytecode": "0x60806040523480156200001157600080fd5b506200003e7fdf8b4c520ffe197c5343c6f5aec59570151ef9a492f2c624fd45ddde6135ec423362000044565b620000f8565b62000050828262000054565b5050565b60008281526097602090815260408083206001600160a01b038516845290915290205460ff16620000505760008281526097602090815260408083206001600160a01b03851684529091529020805460ff19166001179055620000b43390565b6001600160a01b0316816001600160a01b0316837f2f8788117e7eff1d82e926ec794901d17c78024a50270940304540a733656f0d60405160405180910390a45050565b6123fd80620001086000396000f3fe608060405234801561001057600080fd5b50600436106101ce5760003560e01c80636352211e11610104578063c26b265f116100a2578063d300133911610071578063d30013391461045d578063d547741f14610470578063e985e9c514610483578063f40898ef146104bf576101ce565b8063c26b265f146103f6578063c87b56dd14610417578063cbee53a31461042a578063cf932b7c1461044a576101ce565b806395d89b41116100de57806395d89b41146103c0578063a217fddf146103c8578063a22cb465146103d0578063b88d4fde146103e3576101ce565b80636352211e1461038757806370a082311461039a57806391d14854146103ad576101ce565b806324db57f81161017157806336568abe1161014b57806336568abe1461030e57806342842e0e146103215780634f062c5a1461033457806362a5723314610354576101ce565b806324db57f8146102a75780632a0acc6a146102d45780632f2ff15d146102fb576101ce565b8063081812fc116101ad578063081812fc14610231578063095ea7b31461025c57806323b872dd14610271578063248a9ca314610284576101ce565b806284c795146101d357806301ffc9a7146101f957806306fdde031461021c575b600080fd5b6101e66101e1366004611db1565b6104f8565b6040519081526020015b60405180910390f35b61020c610207366004611deb565b61051d565b60405190151581526020016101f0565b610224610557565b6040516101f0919061214d565b61024461023f366004611db1565b6105e9565b6040516001600160a01b0390911681526020016101f0565b61026f61026a366004611d88565b610683565b005b61026f61027f366004611c9a565b610799565b6101e6610292366004611db1565b60009081526097602052604090206001015490565b6101e66102b5366004611db1565b600090815260cc6020908152604080832054835260cb90915290205490565b6101e67fdf8b4c520ffe197c5343c6f5aec59570151ef9a492f2c624fd45ddde6135ec4281565b61026f610309366004611dc9565b6107ca565b61026f61031c366004611dc9565b6107f1565b61026f61032f366004611c9a565b61086f565b610347610342366004611db1565b61088a565b6040516101f09190612203565b6101e6610362366004611db1565b600090815260cc6020908152604080832054835260cb90915290206004015460ff1690565b610244610395366004611db1565b6109c4565b6101e66103a8366004611c4e565b610a3b565b61020c6103bb366004611dc9565b610ac2565b610224610aed565b6101e6600081565b61026f6103de366004611d4e565b610afc565b61026f6103f1366004611cd5565b610bce565b610409610404366004611db1565b610c06565b6040516101f0929190612216565b610224610425366004611db1565b610d46565b61043d610438366004611db1565b610e2e565b6040516101f091906120ec565b61026f610458366004611e23565b610f1d565b61022461046b366004611db1565b611021565b61026f61047e366004611dc9565b61110b565b61020c610491366004611c68565b6001600160a01b039182166000908152606a6020908152604080832093909416825291909152205460ff1690565b6102446104cd366004611db1565b600090815260cc6020908152604080832054835260cb9091529020600201546001600160a01b031690565b600081815260cc6020908152604080832054835260cb9091529020600301545b919050565b60006001600160e01b03198216630c3e4d3160e31b1480610542575061054282611131565b80610551575061055182611181565b92915050565b60606065805461056690612305565b80601f016020809104026020016040519081016040528092919081815260200182805461059290612305565b80156105df5780601f106105b4576101008083540402835291602001916105df565b820191906000526020600020905b8154815290600101906020018083116105c257829003601f168201915b5050505050905090565b6000818152606760205260408120546001600160a01b03166106675760405162461bcd60e51b815260206004820152602c60248201527f4552433732313a20617070726f76656420717565727920666f72206e6f6e657860448201526b34b9ba32b73a103a37b5b2b760a11b60648201526084015b60405180910390fd5b506000908152606960205260409020546001600160a01b031690565b600061068e826109c4565b9050806001600160a01b0316836001600160a01b031614156106fc5760405162461bcd60e51b815260206004820152602160248201527f4552433732313a20617070726f76616c20746f2063757272656e74206f776e656044820152603960f91b606482015260840161065e565b336001600160a01b038216148061071857506107188133610491565b61078a5760405162461bcd60e51b815260206004820152603860248201527f4552433732313a20617070726f76652063616c6c6572206973206e6f74206f7760448201527f6e6572206e6f7220617070726f76656420666f7220616c6c0000000000000000606482015260840161065e565b61079483836111a6565b505050565b6107a33382611214565b6107bf5760405162461bcd60e51b815260040161065e906121b2565b61079483838361130b565b6000828152609760205260409020600101546107e781335b6114ab565b610794838361150f565b6001600160a01b03811633146108615760405162461bcd60e51b815260206004820152602f60248201527f416363657373436f6e74726f6c3a2063616e206f6e6c792072656e6f756e636560448201526e103937b632b9903337b91039b2b63360891b606482015260840161065e565b61086b8282611595565b5050565b61079483838360405180602001604052806000815250610bce565b610892611a45565b60cb60008381526020019081526020016000206040518060a00160405290816000820154815260200160018201805480602002602001604051908101604052809291908181526020016000905b8282101561098b5783829060005260206000200180546108fe90612305565b80601f016020809104026020016040519081016040528092919081815260200182805461092a90612305565b80156109775780601f1061094c57610100808354040283529160200191610977565b820191906000526020600020905b81548152906001019060200180831161095a57829003601f168201915b5050505050815260200190600101906108df565b5050509082525060028201546001600160a01b031660208201526003820154604082015260049091015460ff1660609091015292915050565b6000818152606760205260408120546001600160a01b0316806105515760405162461bcd60e51b815260206004820152602960248201527f4552433732313a206f776e657220717565727920666f72206e6f6e657869737460448201526832b73a103a37b5b2b760b91b606482015260840161065e565b60006001600160a01b038216610aa65760405162461bcd60e51b815260206004820152602a60248201527f4552433732313a2062616c616e636520717565727920666f7220746865207a65604482015269726f206164647265737360b01b606482015260840161065e565b506001600160a01b031660009081526068602052604090205490565b60009182526097602090815260408084206001600160a01b0393909316845291905290205460ff1690565b60606066805461056690612305565b6001600160a01b038216331415610b555760405162461bcd60e51b815260206004820152601960248201527f4552433732313a20617070726f766520746f2063616c6c657200000000000000604482015260640161065e565b336000818152606a602090815260408083206001600160a01b0387168085529252909120805460ff1916841515179055906001600160a01b03167f17307eab39ab6107e8899845ad3d59bd9653f200f220920489ca2b5937696c3183604051610bc2911515815260200190565b60405180910390a35050565b610bd83383611214565b610bf45760405162461bcd60e51b815260040161065e906121b2565b610c00848484846115fc565b50505050565b6000610c10611a45565b600083815260cc602090815260408083205480845260cb8352818420825160a0810184528154815260018201805485518188028101880190965280865293985090959194868101949391929084015b82821015610d0b578382906000526020600020018054610c7e90612305565b80601f0160208091040260200160405190810160405280929190818152602001828054610caa90612305565b8015610cf75780601f10610ccc57610100808354040283529160200191610cf7565b820191906000526020600020905b815481529060010190602001808311610cda57829003601f168201915b505050505081526020019060010190610c5f565b5050509082525060028201546001600160a01b031660208201526003820154604082015260049091015460ff16606090910152919391925050565b6000818152606760205260409020546060906001600160a01b0316610dc55760405162461bcd60e51b815260206004820152602f60248201527f4552433732314d657461646174613a2055524920717565727920666f72206e6f60448201526e3732bc34b9ba32b73a103a37b5b2b760891b606482015260840161065e565b6000610ddc60408051602081019091526000815290565b90506000815111610dfc5760405180602001604052806000815250610e27565b80610e068461162f565b604051602001610e1792919061200b565b6040516020818303038152906040525b9392505050565b606060cb6000838152602001908152602001600020600101805480602002602001604051908101604052809291908181526020016000905b82821015610f12578382906000526020600020018054610e8590612305565b80601f0160208091040260200160405190810160405280929190818152602001828054610eb190612305565b8015610efe5780601f10610ed357610100808354040283529160200191610efe565b820191906000526020600020905b815481529060010190602001808311610ee157829003601f168201915b505050505081526020019060010190610e66565b505050509050919050565b610f477fdf8b4c520ffe197c5343c6f5aec59570151ef9a492f2c624fd45ddde6135ec42336103bb565b610f8a5760405162461bcd60e51b81526020600482015260146024820152732a32b63632b927232a1d103737ba1030b236b4b760611b604482015260640161065e565b600060cb6000610f9960c95490565b815260208082019290925260400160002083518155838201518051919350610fc8926001850192910190611a80565b5060408201516002820180546001600160a01b0319166001600160a01b0390921691909117905560608201516003820155608082015160048201805460ff191660ff90921691909117905560c98054600101905561086b565b600081815260cc6020908152604080832054835260cb9091529020600101805460609190819061105290859061174a565b8154811061107057634e487b7160e01b600052603260045260246000fd5b90600052602060002001805461108590612305565b80601f01602080910402602001604051908101604052809291908181526020018280546110b190612305565b80156110fe5780601f106110d3576101008083540402835291602001916110fe565b820191906000526020600020905b8154815290600101906020018083116110e157829003601f168201915b5050505050915050919050565b60008281526097602052604090206001015461112781336107e2565b6107948383611595565b60006001600160e01b031982166380ac58cd60e01b148061116257506001600160e01b03198216635b5e139f60e01b145b8061055157506301ffc9a760e01b6001600160e01b0319831614610551565b60006001600160e01b03198216637965db0b60e01b1480610551575061055182611131565b600081815260696020526040902080546001600160a01b0319166001600160a01b03841690811790915581906111db826109c4565b6001600160a01b03167f8c5be1e5ebec7d5bd14f71427d1e84f3dd0314c0f7b2291e5b200ac8c7c3b92560405160405180910390a45050565b6000818152606760205260408120546001600160a01b031661128d5760405162461bcd60e51b815260206004820152602c60248201527f4552433732313a206f70657261746f7220717565727920666f72206e6f6e657860448201526b34b9ba32b73a103a37b5b2b760a11b606482015260840161065e565b6000611298836109c4565b9050806001600160a01b0316846001600160a01b031614806112d35750836001600160a01b03166112c8846105e9565b6001600160a01b0316145b8061130357506001600160a01b038082166000908152606a602090815260408083209388168352929052205460ff165b949350505050565b826001600160a01b031661131e826109c4565b6001600160a01b0316146113865760405162461bcd60e51b815260206004820152602960248201527f4552433732313a207472616e73666572206f6620746f6b656e2074686174206960448201526839903737ba1037bbb760b91b606482015260840161065e565b6001600160a01b0382166113e85760405162461bcd60e51b8152602060048201526024808201527f4552433732313a207472616e7366657220746f20746865207a65726f206164646044820152637265737360e01b606482015260840161065e565b6113f36000826111a6565b6001600160a01b038316600090815260686020526040812080546001929061141c9084906122ab565b90915550506001600160a01b038216600090815260686020526040812080546001929061144a908490612260565b909155505060008181526067602052604080822080546001600160a01b0319166001600160a01b0386811691821790925591518493918716917fddf252ad1be2c89b69c2b068fc378daa952ba7f163c4a11628f55a4df523b3ef91a4505050565b6114b58282610ac2565b61086b576114cd816001600160a01b03166014611756565b6114d8836020611756565b6040516020016114e992919061203a565b60408051601f198184030181529082905262461bcd60e51b825261065e9160040161214d565b6115198282610ac2565b61086b5760008281526097602090815260408083206001600160a01b03851684529091529020805460ff191660011790556115513390565b6001600160a01b0316816001600160a01b0316837f2f8788117e7eff1d82e926ec794901d17c78024a50270940304540a733656f0d60405160405180910390a45050565b61159f8282610ac2565b1561086b5760008281526097602090815260408083206001600160a01b0385168085529252808320805460ff1916905551339285917ff6391f5c32d9c69d2a47ea670b442974b53935d1edc7fd64eb21e047a839171b9190a45050565b61160784848461130b565b61161384848484611938565b610c005760405162461bcd60e51b815260040161065e90612160565b60608161165457506040805180820190915260018152600360fc1b6020820152610518565b8160005b811561167e578061166881612340565b91506116779050600a83612278565b9150611658565b60008167ffffffffffffffff8111156116a757634e487b7160e01b600052604160045260246000fd5b6040519080825280601f01601f1916602001820160405280156116d1576020820181803683370190505b5090505b8415611303576116e66001836122ab565b91506116f3600a8661235b565b6116fe906030612260565b60f81b81838151811061172157634e487b7160e01b600052603260045260246000fd5b60200101906001600160f81b031916908160001a905350611743600a86612278565b94506116d5565b6000610e27828461235b565b6060600061176583600261228c565b611770906002612260565b67ffffffffffffffff81111561179657634e487b7160e01b600052604160045260246000fd5b6040519080825280601f01601f1916602001820160405280156117c0576020820181803683370190505b509050600360fc1b816000815181106117e957634e487b7160e01b600052603260045260246000fd5b60200101906001600160f81b031916908160001a905350600f60fb1b8160018151811061182657634e487b7160e01b600052603260045260246000fd5b60200101906001600160f81b031916908160001a905350600061184a84600261228c565b611855906001612260565b90505b60018111156118e9576f181899199a1a9b1b9c1cb0b131b232b360811b85600f166010811061189757634e487b7160e01b600052603260045260246000fd5b1a60f81b8282815181106118bb57634e487b7160e01b600052603260045260246000fd5b60200101906001600160f81b031916908160001a90535060049490941c936118e2816122ee565b9050611858565b508315610e275760405162461bcd60e51b815260206004820181905260248201527f537472696e67733a20686578206c656e67746820696e73756666696369656e74604482015260640161065e565b60006001600160a01b0384163b15611a3a57604051630a85bd0160e11b81526001600160a01b0385169063150b7a029061197c9033908990889088906004016120af565b602060405180830381600087803b15801561199657600080fd5b505af19250505080156119c6575060408051601f3d908101601f191682019092526119c391810190611e07565b60015b611a20573d8080156119f4576040519150601f19603f3d011682016040523d82523d6000602084013e6119f9565b606091505b508051611a185760405162461bcd60e51b815260040161065e90612160565b805181602001fd5b6001600160e01b031916630a85bd0160e11b149050611303565b506001949350505050565b6040518060a00160405280600081526020016060815260200160006001600160a01b0316815260200160008152602001600060ff1681525090565b828054828255906000526020600020908101928215611acd579160200282015b82811115611acd5782518051611abd918491602090910190611add565b5091602001919060010190611aa0565b50611ad9929150611b5d565b5090565b828054611ae990612305565b90600052602060002090601f016020900481019282611b0b5760008555611b51565b82601f10611b2457805160ff1916838001178555611b51565b82800160010185558215611b51579182015b82811115611b51578251825591602001919060010190611b36565b50611ad9929150611b7a565b80821115611ad9576000611b718282611b8f565b50600101611b5d565b5b80821115611ad95760008155600101611b7b565b508054611b9b90612305565b6000825580601f10611bad5750611bcb565b601f016020900490600052602060002090810190611bcb9190611b7a565b50565b600067ffffffffffffffff831115611be857611be861239b565b611bfb601f8401601f191660200161222f565b9050828152838383011115611c0f57600080fd5b828260208301376000602084830101529392505050565b80356001600160a01b038116811461051857600080fd5b803560ff8116811461051857600080fd5b600060208284031215611c5f578081fd5b610e2782611c26565b60008060408385031215611c7a578081fd5b611c8383611c26565b9150611c9160208401611c26565b90509250929050565b600080600060608486031215611cae578081fd5b611cb784611c26565b9250611cc560208501611c26565b9150604084013590509250925092565b60008060008060808587031215611cea578081fd5b611cf385611c26565b9350611d0160208601611c26565b925060408501359150606085013567ffffffffffffffff811115611d23578182fd5b8501601f81018713611d33578182fd5b611d4287823560208401611bce565b91505092959194509250565b60008060408385031215611d60578182fd5b611d6983611c26565b915060208301358015158114611d7d578182fd5b809150509250929050565b60008060408385031215611d9a578182fd5b611da383611c26565b946020939093013593505050565b600060208284031215611dc2578081fd5b5035919050565b60008060408385031215611ddb578182fd5b82359150611c9160208401611c26565b600060208284031215611dfc578081fd5b8135610e27816123b1565b600060208284031215611e18578081fd5b8151610e27816123b1565b60006020808385031215611e35578182fd5b823567ffffffffffffffff80821115611e4c578384fd5b9084019060a08287031215611e5f578384fd5b611e6960a061222f565b823581528383013582811115611e7d578586fd5b8301601f81018813611e8d578586fd5b803583811115611e9f57611e9f61239b565b611ead868260051b0161222f565b8181528681019450828701885b83811015611ef857813585018c603f820112611ed4578a8bfd5b611ee58d8b83013560408401611bce565b8852509588019590880190600101611eba565b50508387015250611f0d905060408401611c26565b604082015260608301356060820152611f2860808401611c3d565b60808201529695505050505050565b60008151808452611f4f8160208601602086016122c2565b601f01601f19169290920160200192915050565b600060a083018251845260208084015160a08287015282815180855260c08801915060c08160051b89010194508383019250855b81811015611fc55760bf19898703018352611fb3868551611f37565b95509284019291840191600101611f97565b50505050506040830151611fe460408601826001600160a01b03169052565b50606083015160608501526080830151612003608086018260ff169052565b509392505050565b6000835161201d8184602088016122c2565b8351908301906120318183602088016122c2565b01949350505050565b60007f416363657373436f6e74726f6c3a206163636f756e7420000000000000000000825283516120728160178501602088016122c2565b7001034b99036b4b9b9b4b733903937b6329607d1b60179184019182015283516120a38160288401602088016122c2565b01602801949350505050565b6001600160a01b03858116825284166020820152604081018390526080606082018190526000906120e290830184611f37565b9695505050505050565b6000602080830181845280855180835260408601915060408160051b8701019250838701855b8281101561214057603f1988860301845261212e858351611f37565b94509285019290850190600101612112565b5092979650505050505050565b600060208252610e276020830184611f37565b60208082526032908201527f4552433732313a207472616e7366657220746f206e6f6e20455243373231526560408201527131b2b4bb32b91034b6b83632b6b2b73a32b960711b606082015260800190565b60208082526031908201527f4552433732313a207472616e736665722063616c6c6572206973206e6f74206f6040820152701ddb995c881b9bdc88185c1c1c9bdd9959607a1b606082015260800190565b600060208252610e276020830184611f63565b6000838252604060208301526113036040830184611f63565b604051601f8201601f1916810167ffffffffffffffff811182821017156122585761225861239b565b604052919050565b600082198211156122735761227361236f565b500190565b60008261228757612287612385565b500490565b60008160001904831182151516156122a6576122a661236f565b500290565b6000828210156122bd576122bd61236f565b500390565b60005b838110156122dd5781810151838201526020016122c5565b83811115610c005750506000910152565b6000816122fd576122fd61236f565b506000190190565b600181811c9082168061231957607f821691505b6020821081141561233a57634e487b7160e01b600052602260045260246000fd5b50919050565b60006000198214156123545761235461236f565b5060010190565b60008261236a5761236a612385565b500690565b634e487b7160e01b600052601160045260246000fd5b634e487b7160e01b600052601260045260246000fd5b634e487b7160e01b600052604160045260246000fd5b6001600160e01b031981168114611bcb57600080fdfea26469706673582212208b21c502cbce8dc9975001e510decef97bd4847ebfd62aa982a82d1c2dd5b78464736f6c63430008030033",
  "linkReferences": {},
  "deployedLinkReferences": {}
}