{
  "_format": "hh-sol-artifact-1",
  "contractName": "TellerNFTDictionary",
  "sourceName": "contracts/TellerNftDictionary.sol",
  "abi": [
    {
      "anonymous": false,
      "inputs": [
        {
          "indexed": true,
          "internalType": "address",
          "name": "owner",
          "type": "address"
        },
        {
          "indexed": true,
          "internalType": "address",
          "name": "approved",
          "type": "address"
        },
        {
          "indexed": true,
          "internalType": "uint256",
          "name": "tokenId",
          "type": "uint256"
        }
      ],
      "name": "Approval",
      "type": "event"
    },
    {
      "anonymous": false,
      "inputs": [
        {
          "indexed": true,
          "internalType": "address",
          "name": "owner",
          "type": "address"
        },
        {
          "indexed": true,
          "internalType": "address",
          "name": "operator",
          "type": "address"
        },
        {
          "indexed": false,
          "internalType": "bool",
          "name": "approved",
          "type": "bool"
        }
      ],
      "name": "ApprovalForAll",
      "type": "event"
    },
    {
      "anonymous": false,
      "inputs": [
        {
          "indexed": true,
          "internalType": "bytes32",
          "name": "role",
          "type": "bytes32"
        },
        {
          "indexed": true,
          "internalType": "bytes32",
          "name": "previousAdminRole",
          "type": "bytes32"
        },
        {
          "indexed": true,
          "internalType": "bytes32",
          "name": "newAdminRole",
          "type": "bytes32"
        }
      ],
      "name": "RoleAdminChanged",
      "type": "event"
    },
    {
      "anonymous": false,
      "inputs": [
        {
          "indexed": true,
          "internalType": "bytes32",
          "name": "role",
          "type": "bytes32"
        },
        {
          "indexed": true,
          "internalType": "address",
          "name": "account",
          "type": "address"
        },
        {
          "indexed": true,
          "internalType": "address",
          "name": "sender",
          "type": "address"
        }
      ],
      "name": "RoleGranted",
      "type": "event"
    },
    {
      "anonymous": false,
      "inputs": [
        {
          "indexed": true,
          "internalType": "bytes32",
          "name": "role",
          "type": "bytes32"
        },
        {
          "indexed": true,
          "internalType": "address",
          "name": "account",
          "type": "address"
        },
        {
          "indexed": true,
          "internalType": "address",
          "name": "sender",
          "type": "address"
        }
      ],
      "name": "RoleRevoked",
      "type": "event"
    },
    {
      "anonymous": false,
      "inputs": [
        {
          "indexed": true,
          "internalType": "address",
          "name": "from",
          "type": "address"
        },
        {
          "indexed": true,
          "internalType": "address",
          "name": "to",
          "type": "address"
        },
        {
          "indexed": true,
          "internalType": "uint256",
          "name": "tokenId",
          "type": "uint256"
        }
      ],
      "name": "Transfer",
      "type": "event"
    },
    {
      "inputs": [],
      "name": "ADMIN",
      "outputs": [
        {
          "internalType": "bytes32",
          "name": "",
          "type": "bytes32"
        }
      ],
      "stateMutability": "view",
      "type": "function"
    },
    {
      "inputs": [],
      "name": "DEFAULT_ADMIN_ROLE",
      "outputs": [
        {
          "internalType": "bytes32",
          "name": "",
          "type": "bytes32"
        }
      ],
      "stateMutability": "view",
      "type": "function"
    },
    {
      "inputs": [],
      "name": "MINTER",
      "outputs": [
        {
          "internalType": "bytes32",
          "name": "",
          "type": "bytes32"
        }
      ],
      "stateMutability": "view",
      "type": "function"
    },
    {
      "inputs": [
        {
          "components": [
            {
              "internalType": "uint256",
              "name": "baseLoanSize",
              "type": "uint256"
            },
            {
              "internalType": "string[]",
              "name": "hashes",
              "type": "string[]"
            },
            {
              "internalType": "address",
              "name": "contributionAsset",
              "type": "address"
            },
            {
              "internalType": "uint256",
              "name": "contributionSize",
              "type": "uint256"
            },
            {
              "internalType": "uint8",
              "name": "contributionMultiplier",
              "type": "uint8"
            }
          ],
          "internalType": "struct ITellerNFT.Tier",
          "name": "newTier",
          "type": "tuple"
        }
      ],
      "name": "addTier",
      "outputs": [],
      "stateMutability": "nonpayable",
      "type": "function"
    },
    {
      "inputs": [
        {
          "internalType": "address",
          "name": "to",
          "type": "address"
        },
        {
          "internalType": "uint256",
          "name": "tokenId",
          "type": "uint256"
        }
      ],
      "name": "approve",
      "outputs": [],
      "stateMutability": "nonpayable",
      "type": "function"
    },
    {
      "inputs": [
        {
          "internalType": "address",
          "name": "owner",
          "type": "address"
        }
      ],
      "name": "balanceOf",
      "outputs": [
        {
          "internalType": "uint256",
          "name": "",
          "type": "uint256"
        }
      ],
      "stateMutability": "view",
      "type": "function"
    },
    {
      "inputs": [],
      "name": "contractURI",
      "outputs": [
        {
          "internalType": "string",
          "name": "",
          "type": "string"
        }
      ],
      "stateMutability": "view",
      "type": "function"
    },
    {
      "inputs": [
        {
          "internalType": "uint256",
          "name": "tokenId",
          "type": "uint256"
        }
      ],
      "name": "getApproved",
      "outputs": [
        {
          "internalType": "address",
          "name": "",
          "type": "address"
        }
      ],
      "stateMutability": "view",
      "type": "function"
    },
    {
      "inputs": [
        {
          "internalType": "address",
          "name": "owner",
          "type": "address"
        }
      ],
      "name": "getOwnedTokens",
      "outputs": [
        {
          "internalType": "uint256[]",
          "name": "owned_",
          "type": "uint256[]"
        }
      ],
      "stateMutability": "view",
      "type": "function"
    },
    {
      "inputs": [
        {
          "internalType": "bytes32",
          "name": "role",
          "type": "bytes32"
        }
      ],
      "name": "getRoleAdmin",
      "outputs": [
        {
          "internalType": "bytes32",
          "name": "",
          "type": "bytes32"
        }
      ],
      "stateMutability": "view",
      "type": "function"
    },
    {
      "inputs": [
        {
          "internalType": "uint256",
          "name": "index",
          "type": "uint256"
        }
      ],
      "name": "getTier",
      "outputs": [
        {
          "components": [
            {
              "internalType": "uint256",
              "name": "baseLoanSize",
              "type": "uint256"
            },
            {
              "internalType": "string[]",
              "name": "hashes",
              "type": "string[]"
            },
            {
              "internalType": "address",
              "name": "contributionAsset",
              "type": "address"
            },
            {
              "internalType": "uint256",
              "name": "contributionSize",
              "type": "uint256"
            },
            {
              "internalType": "uint8",
              "name": "contributionMultiplier",
              "type": "uint8"
            }
          ],
          "internalType": "struct ITellerNFT.Tier",
          "name": "tier_",
          "type": "tuple"
        }
      ],
      "stateMutability": "view",
      "type": "function"
    },
    {
      "inputs": [
        {
          "internalType": "uint256",
          "name": "tierIndex",
          "type": "uint256"
        }
      ],
      "name": "getTierHashes",
      "outputs": [
        {
          "internalType": "string[]",
          "name": "hashes_",
          "type": "string[]"
        }
      ],
      "stateMutability": "view",
      "type": "function"
    },
    {
      "inputs": [
        {
          "internalType": "uint256",
          "name": "tokenId",
          "type": "uint256"
        }
      ],
      "name": "getTokenTier",
      "outputs": [
        {
          "internalType": "uint256",
          "name": "index_",
          "type": "uint256"
        },
        {
          "components": [
            {
              "internalType": "uint256",
              "name": "baseLoanSize",
              "type": "uint256"
            },
            {
              "internalType": "string[]",
              "name": "hashes",
              "type": "string[]"
            },
            {
              "internalType": "address",
              "name": "contributionAsset",
              "type": "address"
            },
            {
              "internalType": "uint256",
              "name": "contributionSize",
              "type": "uint256"
            },
            {
              "internalType": "uint8",
              "name": "contributionMultiplier",
              "type": "uint8"
            }
          ],
          "internalType": "struct ITellerNFT.Tier",
          "name": "tier_",
          "type": "tuple"
        }
      ],
      "stateMutability": "view",
      "type": "function"
    },
    {
      "inputs": [
        {
          "internalType": "bytes32",
          "name": "role",
          "type": "bytes32"
        },
        {
          "internalType": "address",
          "name": "account",
          "type": "address"
        }
      ],
      "name": "grantRole",
      "outputs": [],
      "stateMutability": "nonpayable",
      "type": "function"
    },
    {
      "inputs": [
        {
          "internalType": "bytes32",
          "name": "role",
          "type": "bytes32"
        },
        {
          "internalType": "address",
          "name": "account",
          "type": "address"
        }
      ],
      "name": "hasRole",
      "outputs": [
        {
          "internalType": "bool",
          "name": "",
          "type": "bool"
        }
      ],
      "stateMutability": "view",
      "type": "function"
    },
    {
      "inputs": [
        {
          "internalType": "address[]",
          "name": "minters",
          "type": "address[]"
        }
      ],
      "name": "initialize",
      "outputs": [],
      "stateMutability": "nonpayable",
      "type": "function"
    },
    {
      "inputs": [
        {
          "internalType": "address",
          "name": "owner",
          "type": "address"
        },
        {
          "internalType": "address",
          "name": "operator",
          "type": "address"
        }
      ],
      "name": "isApprovedForAll",
      "outputs": [
        {
          "internalType": "bool",
          "name": "",
          "type": "bool"
        }
      ],
      "stateMutability": "view",
      "type": "function"
    },
    {
      "inputs": [
        {
          "internalType": "uint256",
          "name": "tierIndex",
          "type": "uint256"
        },
        {
          "internalType": "address",
          "name": "owner",
          "type": "address"
        }
      ],
      "name": "mint",
      "outputs": [],
      "stateMutability": "nonpayable",
      "type": "function"
    },
    {
      "inputs": [],
      "name": "name",
      "outputs": [
        {
          "internalType": "string",
          "name": "",
          "type": "string"
        }
      ],
      "stateMutability": "view",
      "type": "function"
    },
    {
      "inputs": [
        {
          "internalType": "uint256",
          "name": "tokenId",
          "type": "uint256"
        }
      ],
      "name": "ownerOf",
      "outputs": [
        {
          "internalType": "address",
          "name": "",
          "type": "address"
        }
      ],
      "stateMutability": "view",
      "type": "function"
    },
    {
      "inputs": [
        {
          "internalType": "bytes32",
          "name": "role",
          "type": "bytes32"
        },
        {
          "internalType": "address",
          "name": "account",
          "type": "address"
        }
      ],
      "name": "renounceRole",
      "outputs": [],
      "stateMutability": "nonpayable",
      "type": "function"
    },
    {
      "inputs": [
        {
          "internalType": "bytes32",
          "name": "role",
          "type": "bytes32"
        },
        {
          "internalType": "address",
          "name": "account",
          "type": "address"
        }
      ],
      "name": "revokeRole",
      "outputs": [],
      "stateMutability": "nonpayable",
      "type": "function"
    },
    {
      "inputs": [
        {
          "internalType": "address",
          "name": "from",
          "type": "address"
        },
        {
          "internalType": "address",
          "name": "to",
          "type": "address"
        },
        {
          "internalType": "uint256",
          "name": "tokenId",
          "type": "uint256"
        }
      ],
      "name": "safeTransferFrom",
      "outputs": [],
      "stateMutability": "nonpayable",
      "type": "function"
    },
    {
      "inputs": [
        {
          "internalType": "address",
          "name": "from",
          "type": "address"
        },
        {
          "internalType": "address",
          "name": "to",
          "type": "address"
        },
        {
          "internalType": "uint256",
          "name": "tokenId",
          "type": "uint256"
        },
        {
          "internalType": "bytes",
          "name": "_data",
          "type": "bytes"
        }
      ],
      "name": "safeTransferFrom",
      "outputs": [],
      "stateMutability": "nonpayable",
      "type": "function"
    },
    {
      "inputs": [
        {
          "internalType": "address",
          "name": "operator",
          "type": "address"
        },
        {
          "internalType": "bool",
          "name": "approved",
          "type": "bool"
        }
      ],
      "name": "setApprovalForAll",
      "outputs": [],
      "stateMutability": "nonpayable",
      "type": "function"
    },
    {
      "inputs": [
        {
          "internalType": "string",
          "name": "contractURIHash",
          "type": "string"
        }
      ],
      "name": "setContractURIHash",
      "outputs": [],
      "stateMutability": "nonpayable",
      "type": "function"
    },
    {
      "inputs": [
        {
          "internalType": "address",
          "name": "addr",
          "type": "address"
        }
      ],
      "name": "setTellerNFTAddress",
      "outputs": [
        {
          "internalType": "bool",
          "name": "",
          "type": "bool"
        }
      ],
      "stateMutability": "nonpayable",
      "type": "function"
    },
    {
      "inputs": [
        {
          "internalType": "bytes4",
          "name": "interfaceId",
          "type": "bytes4"
        }
      ],
      "name": "supportsInterface",
      "outputs": [
        {
          "internalType": "bool",
          "name": "",
          "type": "bool"
        }
      ],
      "stateMutability": "view",
      "type": "function"
    },
    {
      "inputs": [],
      "name": "symbol",
      "outputs": [
        {
          "internalType": "string",
          "name": "",
          "type": "string"
        }
      ],
      "stateMutability": "view",
      "type": "function"
    },
    {
      "inputs": [],
      "name": "tellerNFTAddress",
      "outputs": [
        {
          "internalType": "address",
          "name": "",
          "type": "address"
        }
      ],
      "stateMutability": "view",
      "type": "function"
    },
    {
      "inputs": [
        {
          "internalType": "uint256",
          "name": "tokenId",
          "type": "uint256"
        }
      ],
      "name": "tokenURI",
      "outputs": [
        {
          "internalType": "string",
          "name": "",
          "type": "string"
        }
      ],
      "stateMutability": "view",
      "type": "function"
    },
    {
      "inputs": [
        {
          "internalType": "address",
          "name": "from",
          "type": "address"
        },
        {
          "internalType": "address",
          "name": "to",
          "type": "address"
        },
        {
          "internalType": "uint256",
          "name": "tokenId",
          "type": "uint256"
        }
      ],
      "name": "transferFrom",
      "outputs": [],
      "stateMutability": "nonpayable",
      "type": "function"
    }
  ],
  "bytecode": "0x608060405234801561001057600080fd5b50612aac806100206000396000f3fe608060405234801561001057600080fd5b50600436106101f05760003560e01c8063a217fddf1161010f578063cbee53a3116100a2578063e3477c3d11610071578063e3477c3d1461048b578063e8a3d4851461049e578063e985e9c5146104a6578063fe6d8124146104e2576101f0565b8063cbee53a314610425578063cf932b7c14610445578063d547741f14610458578063d9d616551461046b576101f0565b8063baedc1c4116100de578063baedc1c4146103cb578063bcf54535146103de578063c26b265f146103f1578063c87b56dd14610412576101f0565b8063a217fddf1461038a578063a224cee714610392578063a22cb465146103a5578063b88d4fde146103b8576101f0565b806336568abe1161018757806370a082311161015657806370a082311461034957806391d148541461035c57806394bf804d1461036f57806395d89b4114610382576101f0565b806336568abe146102f057806342842e0e146103035780634f062c5a146103165780636352211e14610336576101f0565b806323b872dd116101c357806323b872dd14610272578063248a9ca3146102855780632a0acc6a146102b65780632f2ff15d146102dd576101f0565b806301ffc9a7146101f557806306fdde031461021d578063081812fc14610232578063095ea7b31461025d575b600080fd5b610208610203366004612385565b6104f7565b60405190151581526020015b60405180910390f35b610225610533565b6040516102149190612738565b61024561024036600461234b565b6105c5565b6040516001600160a01b039091168152602001610214565b61027061026b36600461221a565b61065f565b005b61027061028036600461212c565b610775565b6102a861029336600461234b565b60009081526097602052604090206001015490565b604051908152602001610214565b6102a87fdf8b4c520ffe197c5343c6f5aec59570151ef9a492f2c624fd45ddde6135ec4281565b6102706102eb366004612363565b6107a6565b6102706102fe366004612363565b6107cd565b61027061031136600461212c565b61084b565b61032961032436600461234b565b610866565b604051610214919061283c565b61024561034436600461234b565b6109a0565b6102a86103573660046120e0565b610a17565b61020861036a366004612363565b610a9e565b61027061037d366004612363565b610ac9565b610225610b6d565b6102a8600081565b6102706103a0366004612243565b610b7c565b6102706103b33660046121e0565b610cff565b6102706103c6366004612167565b610dd1565b6102706103d93660046123bd565b610e09565b60c954610245906001600160a01b031681565b6104046103ff36600461234b565b610e89565b60405161021492919061284f565b61022561042036600461234b565b610fc9565b61043861043336600461234b565b61109f565b6040516102149190612693565b6102706104533660046123f0565b61118e565b610270610466366004612363565b611281565b61047e6104793660046120e0565b6112a7565b60405161021491906126f4565b6102086104993660046120e0565b611329565b6102256113bd565b6102086104b43660046120fa565b6001600160a01b039182166000908152606a6020908152604080832093909416825291909152205460ff1690565b6102a8600080516020612a0783398151915281565b60006001600160e01b03198216630d04cfd960e21b148061051c575061051c826113cc565b8061052b575061052b8261141c565b90505b919050565b6060606580546105429061294e565b80601f016020809104026020016040519081016040528092919081815260200182805461056e9061294e565b80156105bb5780601f10610590576101008083540402835291602001916105bb565b820191906000526020600020905b81548152906001019060200180831161059e57829003601f168201915b5050505050905090565b6000818152606760205260408120546001600160a01b03166106435760405162461bcd60e51b815260206004820152602c60248201527f4552433732313a20617070726f76656420717565727920666f72206e6f6e657860448201526b34b9ba32b73a103a37b5b2b760a11b60648201526084015b60405180910390fd5b506000908152606960205260409020546001600160a01b031690565b600061066a826109a0565b9050806001600160a01b0316836001600160a01b031614156106d85760405162461bcd60e51b815260206004820152602160248201527f4552433732313a20617070726f76616c20746f2063757272656e74206f776e656044820152603960f91b606482015260840161063a565b336001600160a01b03821614806106f457506106f481336104b4565b6107665760405162461bcd60e51b815260206004820152603860248201527f4552433732313a20617070726f76652063616c6c6572206973206e6f74206f7760448201527f6e6572206e6f7220617070726f76656420666f7220616c6c0000000000000000606482015260840161063a565b6107708383611441565b505050565b61077f33826114af565b61079b5760405162461bcd60e51b815260040161063a906127eb565b6107708383836115a6565b6000828152609760205260409020600101546107c381335b611746565b61077083836117aa565b6001600160a01b038116331461083d5760405162461bcd60e51b815260206004820152602f60248201527f416363657373436f6e74726f6c3a2063616e206f6e6c792072656e6f756e636560448201526e103937b632b9903337b91039b2b63360891b606482015260840161063a565b6108478282611830565b5050565b61077083838360405180602001604052806000815250610dd1565b61086e611ebb565b60cc60008381526020019081526020016000206040518060a00160405290816000820154815260200160018201805480602002602001604051908101604052809291908181526020016000905b828210156109675783829060005260206000200180546108da9061294e565b80601f01602080910402602001604051908101604052809291908181526020018280546109069061294e565b80156109535780601f1061092857610100808354040283529160200191610953565b820191906000526020600020905b81548152906001019060200180831161093657829003601f168201915b5050505050815260200190600101906108bb565b5050509082525060028201546001600160a01b031660208201526003820154604082015260049091015460ff1660609091015292915050565b6000818152606760205260408120546001600160a01b03168061052b5760405162461bcd60e51b815260206004820152602960248201527f4552433732313a206f776e657220717565727920666f72206e6f6e657869737460448201526832b73a103a37b5b2b760b91b606482015260840161063a565b60006001600160a01b038216610a825760405162461bcd60e51b815260206004820152602a60248201527f4552433732313a2062616c616e636520717565727920666f7220746865207a65604482015269726f206164647265737360b01b606482015260840161063a565b506001600160a01b031660009081526068602052604090205490565b60009182526097602090815260408084206001600160a01b0393909316845291905290205460ff1690565b610ae1600080516020612a078339815191523361036a565b610b255760405162461bcd60e51b81526020600482015260156024820152742a32b63632b927232a1d103737ba1036b4b73a32b960591b604482015260640161063a565b60405162461bcd60e51b815260206004820181905260248201527f63616e6e6f74206d696e74207573696e67207468697320636f6e74726163742e604482015260640161063a565b6060606680546105429061294e565b600054610100900460ff1680610b95575060005460ff16155b610bb15760405162461bcd60e51b815260040161063a9061279d565b600054610100900460ff16158015610bd3576000805461ffff19166101011790555b610c1b6040518060400160405280600a81526020016915195b1b195c8813919560b21b815250604051806040016040528060048152602001631513919560e21b815250611897565b610c2361191e565b60005b82811015610c8c57610c7a600080516020612a07833981519152858584818110610c6057634e487b7160e01b600052603260045260246000fd5b9050602002016020810190610c7591906120e0565b6119a2565b80610c8481612989565b915050610c26565b50604051806060016040528060228152602001612a55602291398051610cba9160ce91602090910190611ef6565b506040518060600160405280602e8152602001612a27602e91398051610ce89160cf91602090910190611ef6565b508015610770576000805461ff0019169055505050565b6001600160a01b038216331415610d585760405162461bcd60e51b815260206004820152601960248201527f4552433732313a20617070726f766520746f2063616c6c657200000000000000604482015260640161063a565b336000818152606a602090815260408083206001600160a01b0387168085529252909120805460ff1916841515179055906001600160a01b03167f17307eab39ab6107e8899845ad3d59bd9653f200f220920489ca2b5937696c3183604051610dc5911515815260200190565b60405180910390a35050565b610ddb33836114af565b610df75760405162461bcd60e51b815260040161063a906127eb565b610e03848484846119ac565b50505050565b610e337fdf8b4c520ffe197c5343c6f5aec59570151ef9a492f2c624fd45ddde6135ec423361036a565b610e765760405162461bcd60e51b81526020600482015260146024820152732a32b63632b927232a1d103737ba1030b236b4b760611b604482015260640161063a565b80516108479060cf906020840190611ef6565b6000610e93611ebb565b600083815260cd602090815260408083205480845260cc8352818420825160a0810184528154815260018201805485518188028101880190965280865293985090959194868101949391929084015b82821015610f8e578382906000526020600020018054610f019061294e565b80601f0160208091040260200160405190810160405280929190818152602001828054610f2d9061294e565b8015610f7a5780601f10610f4f57610100808354040283529160200191610f7a565b820191906000526020600020905b815481529060010190602001808311610f5d57829003601f168201915b505050505081526020019060010190610ee2565b5050509082525060028201546001600160a01b031660208201526003820154604082015260049091015460ff16606090910152919391925050565b6000818152606760205260409020546060906001600160a01b03166110435760405162461bcd60e51b815260206004820152602a60248201527f54656c6c65724e46543a2055524920717565727920666f72206e6f6e657869736044820152693a32b73a103a37b5b2b760b11b606482015260840161063a565b600061104d6119df565b9050600081511161106d5760405180602001604052806000815250611098565b80611077846119ee565b6040516020016110889291906125b2565b6040516020818303038152906040525b9392505050565b606060cc6000838152602001908152602001600020600101805480602002602001604051908101604052809291908181526020016000905b828210156111835783829060005260206000200180546110f69061294e565b80601f01602080910402602001604051908101604052809291908181526020018280546111229061294e565b801561116f5780601f106111445761010080835404028352916020019161116f565b820191906000526020600020905b81548152906001019060200180831161115257829003601f168201915b5050505050815260200190600101906110d7565b505050509050919050565b6111a6600080516020612a078339815191523361036a565b6111ea5760405162461bcd60e51b81526020600482015260156024820152742a32b63632b927232a1d103737ba1036b4b73a32b960591b604482015260640161063a565b600060cc60006111f960ca5490565b815260208082019290925260400160002083518155838201518051919350611228926001850192910190611f7a565b5060408201516002820180546001600160a01b0319166001600160a01b0390921691909117905560608201516003820155608082015160048201805460ff191660ff90921691909117905560ca80546001019055610847565b60008281526097602052604090206001015461129d81336107be565b6107708383611830565b60c95460405163d9d6165560e01b81526001600160a01b038381166004830152606092169063d9d616559060240160006040518083038186803b1580156112ed57600080fd5b505afa158015611301573d6000803e3d6000fd5b505050506040513d6000823e601f3d908101601f1916820160405261052b91908101906122b3565b60006113557fdf8b4c520ffe197c5343c6f5aec59570151ef9a492f2c624fd45ddde6135ec423361036a565b6113985760405162461bcd60e51b81526020600482015260146024820152732a32b63632b927232a1d103737ba1030b236b4b760611b604482015260640161063a565b5060c980546001600160a01b0383166001600160a01b03199091161790556001919050565b606060cf80546105429061294e565b60006001600160e01b031982166380ac58cd60e01b14806113fd57506001600160e01b03198216635b5e139f60e01b145b8061052b57506301ffc9a760e01b6001600160e01b031983161461052b565b60006001600160e01b03198216637965db0b60e01b148061052b575061052b826113cc565b600081815260696020526040902080546001600160a01b0319166001600160a01b0384169081179091558190611476826109a0565b6001600160a01b03167f8c5be1e5ebec7d5bd14f71427d1e84f3dd0314c0f7b2291e5b200ac8c7c3b92560405160405180910390a45050565b6000818152606760205260408120546001600160a01b03166115285760405162461bcd60e51b815260206004820152602c60248201527f4552433732313a206f70657261746f7220717565727920666f72206e6f6e657860448201526b34b9ba32b73a103a37b5b2b760a11b606482015260840161063a565b6000611533836109a0565b9050806001600160a01b0316846001600160a01b0316148061156e5750836001600160a01b0316611563846105c5565b6001600160a01b0316145b8061159e57506001600160a01b038082166000908152606a602090815260408083209388168352929052205460ff165b949350505050565b826001600160a01b03166115b9826109a0565b6001600160a01b0316146116215760405162461bcd60e51b815260206004820152602960248201527f4552433732313a207472616e73666572206f6620746f6b656e2074686174206960448201526839903737ba1037bbb760b91b606482015260840161063a565b6001600160a01b0382166116835760405162461bcd60e51b8152602060048201526024808201527f4552433732313a207472616e7366657220746f20746865207a65726f206164646044820152637265737360e01b606482015260840161063a565b61168e600082611441565b6001600160a01b03831660009081526068602052604081208054600192906116b79084906128f4565b90915550506001600160a01b03821660009081526068602052604081208054600192906116e59084906128bd565b909155505060008181526067602052604080822080546001600160a01b0319166001600160a01b0386811691821790925591518493918716917fddf252ad1be2c89b69c2b068fc378daa952ba7f163c4a11628f55a4df523b3ef91a4505050565b6117508282610a9e565b61084757611768816001600160a01b03166014611ad8565b611773836020611ad8565b6040516020016117849291906125e1565b60408051601f198184030181529082905262461bcd60e51b825261063a91600401612738565b6117b48282610a9e565b6108475760008281526097602090815260408083206001600160a01b03851684529091529020805460ff191660011790556117ec3390565b6001600160a01b0316816001600160a01b0316837f2f8788117e7eff1d82e926ec794901d17c78024a50270940304540a733656f0d60405160405180910390a45050565b61183a8282610a9e565b156108475760008281526097602090815260408083206001600160a01b0385168085529252808320805460ff1916905551339285917ff6391f5c32d9c69d2a47ea670b442974b53935d1edc7fd64eb21e047a839171b9190a45050565b600054610100900460ff16806118b0575060005460ff16155b6118cc5760405162461bcd60e51b815260040161063a9061279d565b600054610100900460ff161580156118ee576000805461ffff19166101011790555b6118f6611cba565b6118fe611cba565b6119088383611d24565b8015610770576000805461ff0019169055505050565b600054610100900460ff1680611937575060005460ff16155b6119535760405162461bcd60e51b815260040161063a9061279d565b600054610100900460ff16158015611975576000805461ffff19166101011790555b61197d611cba565b611985611cba565b61198d611cba565b801561199f576000805461ff00191690555b50565b61084782826117aa565b6119b78484846115a6565b6119c384848484611da2565b610e035760405162461bcd60e51b815260040161063a9061274b565b606060ce80546105429061294e565b600081815260cd6020908152604080832054835260cc90915290206001018054606091908190611a1f908590611eaf565b81548110611a3d57634e487b7160e01b600052603260045260246000fd5b906000526020600020018054611a529061294e565b80601f0160208091040260200160405190810160405280929190818152602001828054611a7e9061294e565b8015611acb5780601f10611aa057610100808354040283529160200191611acb565b820191906000526020600020905b815481529060010190602001808311611aae57829003601f168201915b5050505050915050919050565b60606000611ae78360026128d5565b611af29060026128bd565b67ffffffffffffffff811115611b1857634e487b7160e01b600052604160045260246000fd5b6040519080825280601f01601f191660200182016040528015611b42576020820181803683370190505b509050600360fc1b81600081518110611b6b57634e487b7160e01b600052603260045260246000fd5b60200101906001600160f81b031916908160001a905350600f60fb1b81600181518110611ba857634e487b7160e01b600052603260045260246000fd5b60200101906001600160f81b031916908160001a9053506000611bcc8460026128d5565b611bd79060016128bd565b90505b6001811115611c6b576f181899199a1a9b1b9c1cb0b131b232b360811b85600f1660108110611c1957634e487b7160e01b600052603260045260246000fd5b1a60f81b828281518110611c3d57634e487b7160e01b600052603260045260246000fd5b60200101906001600160f81b031916908160001a90535060049490941c93611c6481612937565b9050611bda565b5083156110985760405162461bcd60e51b815260206004820181905260248201527f537472696e67733a20686578206c656e67746820696e73756666696369656e74604482015260640161063a565b600054610100900460ff1680611cd3575060005460ff16155b611cef5760405162461bcd60e51b815260040161063a9061279d565b600054610100900460ff1615801561198d576000805461ffff1916610101179055801561199f576000805461ff001916905550565b600054610100900460ff1680611d3d575060005460ff16155b611d595760405162461bcd60e51b815260040161063a9061279d565b600054610100900460ff16158015611d7b576000805461ffff19166101011790555b8251611d8e906065906020860190611ef6565b508151610ce8906066906020850190611ef6565b60006001600160a01b0384163b15611ea457604051630a85bd0160e11b81526001600160a01b0385169063150b7a0290611de6903390899088908890600401612656565b602060405180830381600087803b158015611e0057600080fd5b505af1925050508015611e30575060408051601f3d908101601f19168201909252611e2d918101906123a1565b60015b611e8a573d808015611e5e576040519150601f19603f3d011682016040523d82523d6000602084013e611e63565b606091505b508051611e825760405162461bcd60e51b815260040161063a9061274b565b805181602001fd5b6001600160e01b031916630a85bd0160e11b14905061159e565b506001949350505050565b600061109882846129a4565b6040518060a00160405280600081526020016060815260200160006001600160a01b0316815260200160008152602001600060ff1681525090565b828054611f029061294e565b90600052602060002090601f016020900481019282611f245760008555611f6a565b82601f10611f3d57805160ff1916838001178555611f6a565b82800160010185558215611f6a579182015b82811115611f6a578251825591602001919060010190611f4f565b50611f76929150611fd3565b5090565b828054828255906000526020600020908101928215611fc7579160200282015b82811115611fc75782518051611fb7918491602090910190611ef6565b5091602001919060010190611f9a565b50611f76929150611fe8565b5b80821115611f765760008155600101611fd4565b80821115611f76576000611ffc8282612005565b50600101611fe8565b5080546120119061294e565b6000825580601f10612023575061199f565b601f01602090049060005260206000209081019061199f9190611fd3565b600067ffffffffffffffff83111561205b5761205b6129da565b61206e601f8401601f1916602001612868565b905082815283838301111561208257600080fd5b828260208301376000602084830101529392505050565b80356001600160a01b038116811461052e57600080fd5b600082601f8301126120c0578081fd5b61109883833560208501612041565b803560ff8116811461052e57600080fd5b6000602082840312156120f1578081fd5b61109882612099565b6000806040838503121561210c578081fd5b61211583612099565b915061212360208401612099565b90509250929050565b600080600060608486031215612140578081fd5b61214984612099565b925061215760208501612099565b9150604084013590509250925092565b6000806000806080858703121561217c578081fd5b61218585612099565b935061219360208601612099565b925060408501359150606085013567ffffffffffffffff8111156121b5578182fd5b8501601f810187136121c5578182fd5b6121d487823560208401612041565b91505092959194509250565b600080604083850312156121f2578182fd5b6121fb83612099565b91506020830135801515811461220f578182fd5b809150509250929050565b6000806040838503121561222c578081fd5b61223583612099565b946020939093013593505050565b60008060208385031215612255578182fd5b823567ffffffffffffffff8082111561226c578384fd5b818501915085601f83011261227f578384fd5b81358181111561228d578485fd5b8660208260051b85010111156122a1578485fd5b60209290920196919550909350505050565b600060208083850312156122c5578182fd5b825167ffffffffffffffff8111156122db578283fd5b8301601f810185136122eb578283fd5b80516122fe6122f982612899565b612868565b80828252848201915084840188868560051b870101111561231d578687fd5b8694505b8385101561233f578051835260019490940193918501918501612321565b50979650505050505050565b60006020828403121561235c578081fd5b5035919050565b60008060408385031215612375578182fd5b8235915061212360208401612099565b600060208284031215612396578081fd5b8135611098816129f0565b6000602082840312156123b2578081fd5b8151611098816129f0565b6000602082840312156123ce578081fd5b813567ffffffffffffffff8111156123e4578182fd5b61159e848285016120b0565b60006020808385031215612402578182fd5b823567ffffffffffffffff80821115612419578384fd5b9084019060a0828703121561242c578384fd5b61243660a0612868565b82358152838301358281111561244a578586fd5b83019150601f8201871361245c578485fd5b813561246a6122f982612899565b81815285810190848701885b8481101561249f5761248d8c8a84358a01016120b0565b84529288019290880190600101612476565b505083870152506124b4905060408401612099565b6040820152606083013560608201526124cf608084016120cf565b60808201529695505050505050565b600081518084526124f681602086016020860161290b565b601f01601f19169290920160200192915050565b600060a083018251845260208084015160a08287015282815180855260c08801915060c08160051b89010194508383019250855b8181101561256c5760bf1989870301835261255a8685516124de565b9550928401929184019160010161253e565b5050505050604083015161258b60408601826001600160a01b03169052565b506060830151606085015260808301516125aa608086018260ff169052565b509392505050565b600083516125c481846020880161290b565b8351908301906125d881836020880161290b565b01949350505050565b60007f416363657373436f6e74726f6c3a206163636f756e74200000000000000000008252835161261981601785016020880161290b565b7001034b99036b4b9b9b4b733903937b6329607d1b601791840191820152835161264a81602884016020880161290b565b01602801949350505050565b6001600160a01b0385811682528416602082015260408101839052608060608201819052600090612689908301846124de565b9695505050505050565b6000602080830181845280855180835260408601915060408160051b8701019250838701855b828110156126e757603f198886030184526126d58583516124de565b945092850192908501906001016126b9565b5092979650505050505050565b6020808252825182820181905260009190848201906040850190845b8181101561272c57835183529284019291840191600101612710565b50909695505050505050565b60006020825261109860208301846124de565b60208082526032908201527f4552433732313a207472616e7366657220746f206e6f6e20455243373231526560408201527131b2b4bb32b91034b6b83632b6b2b73a32b960711b606082015260800190565b6020808252602e908201527f496e697469616c697a61626c653a20636f6e747261637420697320616c72656160408201526d191e481a5b9a5d1a585b1a5e995960921b606082015260800190565b60208082526031908201527f4552433732313a207472616e736665722063616c6c6572206973206e6f74206f6040820152701ddb995c881b9bdc88185c1c1c9bdd9959607a1b606082015260800190565b600060208252611098602083018461250a565b60008382526040602083015261159e604083018461250a565b604051601f8201601f1916810167ffffffffffffffff81118282101715612891576128916129da565b604052919050565b600067ffffffffffffffff8211156128b3576128b36129da565b5060051b60200190565b600082198211156128d0576128d06129c4565b500190565b60008160001904831182151516156128ef576128ef6129c4565b500290565b600082821015612906576129066129c4565b500390565b60005b8381101561292657818101518382015260200161290e565b83811115610e035750506000910152565b600081612946576129466129c4565b506000190190565b600181811c9082168061296257607f821691505b6020821081141561298357634e487b7160e01b600052602260045260246000fd5b50919050565b600060001982141561299d5761299d6129c4565b5060010190565b6000826129bf57634e487b7160e01b81526012600452602481fd5b500690565b634e487b7160e01b600052601160045260246000fd5b634e487b7160e01b600052604160045260246000fd5b6001600160e01b03198116811461199f57600080fdfef0887ba65ee2024ea881d91b74c2450ef19e1557f03bed3ea9f16b037cbe2dc9516d5741665146467770747a5255436446326342464a686342326766484a4d64375451743634645a5579736b335268747470733a2f2f676174657761792e70696e6174612e636c6f75642f697066732fa264697066735822122092c68bbce1fa02d58263c7dc8c6d515ae79db160247164aaeb31b85f7e3f888e64736f6c63430008030033",
  "linkReferences": {},
  "deployedLinkReferences": {}
}