{
  "_format": "hh-sol-artifact-1",
  "contractName": "TellerNFTDictionary",
  "sourceName": "contracts/TellerNftDictionary.sol",
  "abi": [
    {
      "inputs": [],
      "stateMutability": "nonpayable",
      "type": "constructor"
    },
    {
      "anonymous": false,
      "inputs": [
        {
          "indexed": true,
          "internalType": "address",
          "name": "owner",
          "type": "address"
        },
        {
          "indexed": true,
          "internalType": "address",
          "name": "approved",
          "type": "address"
        },
        {
          "indexed": true,
          "internalType": "uint256",
          "name": "tokenId",
          "type": "uint256"
        }
      ],
      "name": "Approval",
      "type": "event"
    },
    {
      "anonymous": false,
      "inputs": [
        {
          "indexed": true,
          "internalType": "address",
          "name": "owner",
          "type": "address"
        },
        {
          "indexed": true,
          "internalType": "address",
          "name": "operator",
          "type": "address"
        },
        {
          "indexed": false,
          "internalType": "bool",
          "name": "approved",
          "type": "bool"
        }
      ],
      "name": "ApprovalForAll",
      "type": "event"
    },
    {
      "anonymous": false,
      "inputs": [
        {
          "indexed": true,
          "internalType": "bytes32",
          "name": "role",
          "type": "bytes32"
        },
        {
          "indexed": true,
          "internalType": "bytes32",
          "name": "previousAdminRole",
          "type": "bytes32"
        },
        {
          "indexed": true,
          "internalType": "bytes32",
          "name": "newAdminRole",
          "type": "bytes32"
        }
      ],
      "name": "RoleAdminChanged",
      "type": "event"
    },
    {
      "anonymous": false,
      "inputs": [
        {
          "indexed": true,
          "internalType": "bytes32",
          "name": "role",
          "type": "bytes32"
        },
        {
          "indexed": true,
          "internalType": "address",
          "name": "account",
          "type": "address"
        },
        {
          "indexed": true,
          "internalType": "address",
          "name": "sender",
          "type": "address"
        }
      ],
      "name": "RoleGranted",
      "type": "event"
    },
    {
      "anonymous": false,
      "inputs": [
        {
          "indexed": true,
          "internalType": "bytes32",
          "name": "role",
          "type": "bytes32"
        },
        {
          "indexed": true,
          "internalType": "address",
          "name": "account",
          "type": "address"
        },
        {
          "indexed": true,
          "internalType": "address",
          "name": "sender",
          "type": "address"
        }
      ],
      "name": "RoleRevoked",
      "type": "event"
    },
    {
      "anonymous": false,
      "inputs": [
        {
          "indexed": true,
          "internalType": "address",
          "name": "from",
          "type": "address"
        },
        {
          "indexed": true,
          "internalType": "address",
          "name": "to",
          "type": "address"
        },
        {
          "indexed": true,
          "internalType": "uint256",
          "name": "tokenId",
          "type": "uint256"
        }
      ],
      "name": "Transfer",
      "type": "event"
    },
    {
      "inputs": [],
      "name": "ADMIN",
      "outputs": [
        {
          "internalType": "bytes32",
          "name": "",
          "type": "bytes32"
        }
      ],
      "stateMutability": "view",
      "type": "function"
    },
    {
      "inputs": [],
      "name": "DEFAULT_ADMIN_ROLE",
      "outputs": [
        {
          "internalType": "bytes32",
          "name": "",
          "type": "bytes32"
        }
      ],
      "stateMutability": "view",
      "type": "function"
    },
    {
      "inputs": [
        {
          "components": [
            {
              "internalType": "uint256",
              "name": "baseLoanSize",
              "type": "uint256"
            },
            {
              "internalType": "string[]",
              "name": "hashes",
              "type": "string[]"
            },
            {
              "internalType": "address",
              "name": "contributionAsset",
              "type": "address"
            },
            {
              "internalType": "uint256",
              "name": "contributionSize",
              "type": "uint256"
            },
            {
              "internalType": "uint8",
              "name": "contributionMultiplier",
              "type": "uint8"
            }
          ],
          "internalType": "struct TellerNFTDictionary.Tier",
          "name": "newTier",
          "type": "tuple"
        }
      ],
      "name": "addTier",
      "outputs": [],
      "stateMutability": "nonpayable",
      "type": "function"
    },
    {
      "inputs": [
        {
          "internalType": "address",
          "name": "to",
          "type": "address"
        },
        {
          "internalType": "uint256",
          "name": "tokenId",
          "type": "uint256"
        }
      ],
      "name": "approve",
      "outputs": [],
      "stateMutability": "nonpayable",
      "type": "function"
    },
    {
      "inputs": [
        {
          "internalType": "address",
          "name": "owner",
          "type": "address"
        }
      ],
      "name": "balanceOf",
      "outputs": [
        {
          "internalType": "uint256",
          "name": "",
          "type": "uint256"
        }
      ],
      "stateMutability": "view",
      "type": "function"
    },
    {
      "inputs": [
        {
          "internalType": "uint256",
          "name": "tokenId",
          "type": "uint256"
        }
      ],
      "name": "getApproved",
      "outputs": [
        {
          "internalType": "address",
          "name": "",
          "type": "address"
        }
      ],
      "stateMutability": "view",
      "type": "function"
    },
    {
      "inputs": [
        {
          "internalType": "bytes32",
          "name": "role",
          "type": "bytes32"
        }
      ],
      "name": "getRoleAdmin",
      "outputs": [
        {
          "internalType": "bytes32",
          "name": "",
          "type": "bytes32"
        }
      ],
      "stateMutability": "view",
      "type": "function"
    },
    {
      "inputs": [
        {
          "internalType": "uint256",
          "name": "index",
          "type": "uint256"
        }
      ],
      "name": "getTier",
      "outputs": [
        {
          "components": [
            {
              "internalType": "uint256",
              "name": "baseLoanSize",
              "type": "uint256"
            },
            {
              "internalType": "string[]",
              "name": "hashes",
              "type": "string[]"
            },
            {
              "internalType": "address",
              "name": "contributionAsset",
              "type": "address"
            },
            {
              "internalType": "uint256",
              "name": "contributionSize",
              "type": "uint256"
            },
            {
              "internalType": "uint8",
              "name": "contributionMultiplier",
              "type": "uint8"
            }
          ],
          "internalType": "struct TellerNFTDictionary.Tier",
          "name": "tier_",
          "type": "tuple"
        }
      ],
      "stateMutability": "view",
      "type": "function"
    },
    {
      "inputs": [
        {
          "internalType": "uint256",
          "name": "tierIndex",
          "type": "uint256"
        }
      ],
      "name": "getTierHashes",
      "outputs": [
        {
          "internalType": "string[]",
          "name": "hashes_",
          "type": "string[]"
        }
      ],
      "stateMutability": "view",
      "type": "function"
    },
    {
      "inputs": [
        {
          "internalType": "uint256",
          "name": "tokenId",
          "type": "uint256"
        }
      ],
      "name": "getTokenTier",
      "outputs": [
        {
          "internalType": "uint256",
          "name": "index_",
          "type": "uint256"
        },
        {
          "components": [
            {
              "internalType": "uint256",
              "name": "baseLoanSize",
              "type": "uint256"
            },
            {
              "internalType": "string[]",
              "name": "hashes",
              "type": "string[]"
            },
            {
              "internalType": "address",
              "name": "contributionAsset",
              "type": "address"
            },
            {
              "internalType": "uint256",
              "name": "contributionSize",
              "type": "uint256"
            },
            {
              "internalType": "uint8",
              "name": "contributionMultiplier",
              "type": "uint8"
            }
          ],
          "internalType": "struct TellerNFTDictionary.Tier",
          "name": "tier_",
          "type": "tuple"
        }
      ],
      "stateMutability": "view",
      "type": "function"
    },
    {
      "inputs": [
        {
          "internalType": "bytes32",
          "name": "role",
          "type": "bytes32"
        },
        {
          "internalType": "address",
          "name": "account",
          "type": "address"
        }
      ],
      "name": "grantRole",
      "outputs": [],
      "stateMutability": "nonpayable",
      "type": "function"
    },
    {
      "inputs": [
        {
          "internalType": "bytes32",
          "name": "role",
          "type": "bytes32"
        },
        {
          "internalType": "address",
          "name": "account",
          "type": "address"
        }
      ],
      "name": "hasRole",
      "outputs": [
        {
          "internalType": "bool",
          "name": "",
          "type": "bool"
        }
      ],
      "stateMutability": "view",
      "type": "function"
    },
    {
      "inputs": [
        {
          "internalType": "address",
          "name": "owner",
          "type": "address"
        },
        {
          "internalType": "address",
          "name": "operator",
          "type": "address"
        }
      ],
      "name": "isApprovedForAll",
      "outputs": [
        {
          "internalType": "bool",
          "name": "",
          "type": "bool"
        }
      ],
      "stateMutability": "view",
      "type": "function"
    },
    {
      "inputs": [],
      "name": "name",
      "outputs": [
        {
          "internalType": "string",
          "name": "",
          "type": "string"
        }
      ],
      "stateMutability": "view",
      "type": "function"
    },
    {
      "inputs": [
        {
          "internalType": "uint256",
          "name": "tokenId",
          "type": "uint256"
        }
      ],
      "name": "ownerOf",
      "outputs": [
        {
          "internalType": "address",
          "name": "",
          "type": "address"
        }
      ],
      "stateMutability": "view",
      "type": "function"
    },
    {
      "inputs": [
        {
          "internalType": "bytes32",
          "name": "role",
          "type": "bytes32"
        },
        {
          "internalType": "address",
          "name": "account",
          "type": "address"
        }
      ],
      "name": "renounceRole",
      "outputs": [],
      "stateMutability": "nonpayable",
      "type": "function"
    },
    {
      "inputs": [
        {
          "internalType": "bytes32",
          "name": "role",
          "type": "bytes32"
        },
        {
          "internalType": "address",
          "name": "account",
          "type": "address"
        }
      ],
      "name": "revokeRole",
      "outputs": [],
      "stateMutability": "nonpayable",
      "type": "function"
    },
    {
      "inputs": [
        {
          "internalType": "address",
          "name": "from",
          "type": "address"
        },
        {
          "internalType": "address",
          "name": "to",
          "type": "address"
        },
        {
          "internalType": "uint256",
          "name": "tokenId",
          "type": "uint256"
        }
      ],
      "name": "safeTransferFrom",
      "outputs": [],
      "stateMutability": "nonpayable",
      "type": "function"
    },
    {
      "inputs": [
        {
          "internalType": "address",
          "name": "from",
          "type": "address"
        },
        {
          "internalType": "address",
          "name": "to",
          "type": "address"
        },
        {
          "internalType": "uint256",
          "name": "tokenId",
          "type": "uint256"
        },
        {
          "internalType": "bytes",
          "name": "_data",
          "type": "bytes"
        }
      ],
      "name": "safeTransferFrom",
      "outputs": [],
      "stateMutability": "nonpayable",
      "type": "function"
    },
    {
      "inputs": [
        {
          "internalType": "address",
          "name": "operator",
          "type": "address"
        },
        {
          "internalType": "bool",
          "name": "approved",
          "type": "bool"
        }
      ],
      "name": "setApprovalForAll",
      "outputs": [],
      "stateMutability": "nonpayable",
      "type": "function"
    },
    {
      "inputs": [
        {
          "internalType": "address",
          "name": "addr",
          "type": "address"
        }
      ],
      "name": "setTellerNFTAddress",
      "outputs": [
        {
          "internalType": "bool",
          "name": "",
          "type": "bool"
        }
      ],
      "stateMutability": "nonpayable",
      "type": "function"
    },
    {
      "inputs": [
        {
          "internalType": "bytes4",
          "name": "interfaceId",
          "type": "bytes4"
        }
      ],
      "name": "supportsInterface",
      "outputs": [
        {
          "internalType": "bool",
          "name": "",
          "type": "bool"
        }
      ],
      "stateMutability": "view",
      "type": "function"
    },
    {
      "inputs": [],
      "name": "symbol",
      "outputs": [
        {
          "internalType": "string",
          "name": "",
          "type": "string"
        }
      ],
      "stateMutability": "view",
      "type": "function"
    },
    {
      "inputs": [],
      "name": "tellerNFTAddress",
      "outputs": [
        {
          "internalType": "address",
          "name": "",
          "type": "address"
        }
      ],
      "stateMutability": "view",
      "type": "function"
    },
    {
      "inputs": [
        {
          "internalType": "uint256",
          "name": "tokenId",
          "type": "uint256"
        }
      ],
      "name": "tokenBaseLoanSize",
      "outputs": [
        {
          "internalType": "uint256",
          "name": "",
          "type": "uint256"
        }
      ],
      "stateMutability": "view",
      "type": "function"
    },
    {
      "inputs": [
        {
          "internalType": "uint256",
          "name": "tokenId",
          "type": "uint256"
        }
      ],
      "name": "tokenContributionAsset",
      "outputs": [
        {
          "internalType": "address",
          "name": "",
          "type": "address"
        }
      ],
      "stateMutability": "view",
      "type": "function"
    },
    {
      "inputs": [
        {
          "internalType": "uint256",
          "name": "tokenId",
          "type": "uint256"
        }
      ],
      "name": "tokenContributionMultiplier",
      "outputs": [
        {
          "internalType": "uint256",
          "name": "",
          "type": "uint256"
        }
      ],
      "stateMutability": "view",
      "type": "function"
    },
    {
      "inputs": [
        {
          "internalType": "uint256",
          "name": "tokenId",
          "type": "uint256"
        }
      ],
      "name": "tokenContributionSize",
      "outputs": [
        {
          "internalType": "uint256",
          "name": "",
          "type": "uint256"
        }
      ],
      "stateMutability": "view",
      "type": "function"
    },
    {
      "inputs": [
        {
          "internalType": "uint256",
          "name": "tokenId",
          "type": "uint256"
        }
      ],
      "name": "tokenURI",
      "outputs": [
        {
          "internalType": "string",
          "name": "",
          "type": "string"
        }
      ],
      "stateMutability": "view",
      "type": "function"
    },
    {
      "inputs": [
        {
          "internalType": "uint256",
          "name": "tokenId",
          "type": "uint256"
        }
      ],
      "name": "tokenURIHash",
      "outputs": [
        {
          "internalType": "string",
          "name": "",
          "type": "string"
        }
      ],
      "stateMutability": "view",
      "type": "function"
    },
    {
      "inputs": [
        {
          "internalType": "address",
          "name": "from",
          "type": "address"
        },
        {
          "internalType": "address",
          "name": "to",
          "type": "address"
        },
        {
          "internalType": "uint256",
          "name": "tokenId",
          "type": "uint256"
        }
      ],
      "name": "transferFrom",
      "outputs": [],
      "stateMutability": "nonpayable",
      "type": "function"
    }
  ],
  "bytecode": "0x60806040523480156200001157600080fd5b506200003e7fdf8b4c520ffe197c5343c6f5aec59570151ef9a492f2c624fd45ddde6135ec423362000044565b620000f8565b62000050828262000054565b5050565b60008281526097602090815260408083206001600160a01b038516845290915290205460ff16620000505760008281526097602090815260408083206001600160a01b03851684529091529020805460ff19166001179055620000b43390565b6001600160a01b0316816001600160a01b0316837f2f8788117e7eff1d82e926ec794901d17c78024a50270940304540a733656f0d60405160405180910390a45050565b6124cd80620001086000396000f3fe608060405234801561001057600080fd5b50600436106101e45760003560e01c806370a082311161010f578063c87b56dd116100a2578063d547741f11610071578063d547741f14610499578063e3477c3d146104ac578063e985e9c5146104bf578063f40898ef146104fb576101e4565b8063c87b56dd14610440578063cbee53a314610453578063cf932b7c14610473578063d300133914610486576101e4565b8063a22cb465116100de578063a22cb465146103e6578063b88d4fde146103f9578063bcf545351461040c578063c26b265f1461041f576101e4565b806370a08231146103b057806391d14854146103c357806395d89b41146103d6578063a217fddf146103de576101e4565b806324db57f81161018757806342842e0e1161015657806342842e0e146103375780634f062c5a1461034a57806362a572331461036a5780636352211e1461039d576101e4565b806324db57f8146102bd5780632a0acc6a146102ea5780632f2ff15d1461031157806336568abe14610324576101e4565b8063081812fc116101c3578063081812fc14610247578063095ea7b31461027257806323b872dd14610287578063248a9ca31461029a576101e4565b806284c795146101e957806301ffc9a71461020f57806306fdde0314610232575b600080fd5b6101fc6101f7366004611e81565b610534565b6040519081526020015b60405180910390f35b61022261021d366004611ebb565b610559565b6040519015158152602001610206565b61023a610593565b604051610206919061221d565b61025a610255366004611e81565b610625565b6040516001600160a01b039091168152602001610206565b610285610280366004611e58565b6106bf565b005b610285610295366004611d6a565b6107d5565b6101fc6102a8366004611e81565b60009081526097602052604090206001015490565b6101fc6102cb366004611e81565b600090815260cd6020908152604080832054835260cc90915290205490565b6101fc7fdf8b4c520ffe197c5343c6f5aec59570151ef9a492f2c624fd45ddde6135ec4281565b61028561031f366004611e99565b610806565b610285610332366004611e99565b61082d565b610285610345366004611d6a565b6108ab565b61035d610358366004611e81565b6108c6565b60405161020691906122d3565b6101fc610378366004611e81565b600090815260cd6020908152604080832054835260cc90915290206004015460ff1690565b61025a6103ab366004611e81565b610a00565b6101fc6103be366004611d1e565b610a77565b6102226103d1366004611e99565b610afe565b61023a610b29565b6101fc600081565b6102856103f4366004611e1e565b610b38565b610285610407366004611da5565b610c0a565b60c95461025a906001600160a01b031681565b61043261042d366004611e81565b610c42565b6040516102069291906122e6565b61023a61044e366004611e81565b610d82565b610466610461366004611e81565b610e6a565b60405161020691906121bc565b610285610481366004611ef3565b610f59565b61023a610494366004611e81565b61105d565b6102856104a7366004611e99565b611147565b6102226104ba366004611d1e565b61116d565b6102226104cd366004611d38565b6001600160a01b039182166000908152606a6020908152604080832093909416825291909152205460ff1690565b61025a610509366004611e81565b600090815260cd6020908152604080832054835260cc9091529020600201546001600160a01b031690565b600081815260cd6020908152604080832054835260cc9091529020600301545b919050565b60006001600160e01b03198216630d04cfd960e21b148061057e575061057e82611201565b8061058d575061058d82611251565b92915050565b6060606580546105a2906123d5565b80601f01602080910402602001604051908101604052809291908181526020018280546105ce906123d5565b801561061b5780601f106105f05761010080835404028352916020019161061b565b820191906000526020600020905b8154815290600101906020018083116105fe57829003601f168201915b5050505050905090565b6000818152606760205260408120546001600160a01b03166106a35760405162461bcd60e51b815260206004820152602c60248201527f4552433732313a20617070726f76656420717565727920666f72206e6f6e657860448201526b34b9ba32b73a103a37b5b2b760a11b60648201526084015b60405180910390fd5b506000908152606960205260409020546001600160a01b031690565b60006106ca82610a00565b9050806001600160a01b0316836001600160a01b031614156107385760405162461bcd60e51b815260206004820152602160248201527f4552433732313a20617070726f76616c20746f2063757272656e74206f776e656044820152603960f91b606482015260840161069a565b336001600160a01b0382161480610754575061075481336104cd565b6107c65760405162461bcd60e51b815260206004820152603860248201527f4552433732313a20617070726f76652063616c6c6572206973206e6f74206f7760448201527f6e6572206e6f7220617070726f76656420666f7220616c6c0000000000000000606482015260840161069a565b6107d08383611276565b505050565b6107df33826112e4565b6107fb5760405162461bcd60e51b815260040161069a90612282565b6107d08383836113db565b60008281526097602052604090206001015461082381335b61157b565b6107d083836115df565b6001600160a01b038116331461089d5760405162461bcd60e51b815260206004820152602f60248201527f416363657373436f6e74726f6c3a2063616e206f6e6c792072656e6f756e636560448201526e103937b632b9903337b91039b2b63360891b606482015260840161069a565b6108a78282611665565b5050565b6107d083838360405180602001604052806000815250610c0a565b6108ce611b15565b60cc60008381526020019081526020016000206040518060a00160405290816000820154815260200160018201805480602002602001604051908101604052809291908181526020016000905b828210156109c757838290600052602060002001805461093a906123d5565b80601f0160208091040260200160405190810160405280929190818152602001828054610966906123d5565b80156109b35780601f10610988576101008083540402835291602001916109b3565b820191906000526020600020905b81548152906001019060200180831161099657829003601f168201915b50505050508152602001906001019061091b565b5050509082525060028201546001600160a01b031660208201526003820154604082015260049091015460ff1660609091015292915050565b6000818152606760205260408120546001600160a01b03168061058d5760405162461bcd60e51b815260206004820152602960248201527f4552433732313a206f776e657220717565727920666f72206e6f6e657869737460448201526832b73a103a37b5b2b760b91b606482015260840161069a565b60006001600160a01b038216610ae25760405162461bcd60e51b815260206004820152602a60248201527f4552433732313a2062616c616e636520717565727920666f7220746865207a65604482015269726f206164647265737360b01b606482015260840161069a565b506001600160a01b031660009081526068602052604090205490565b60009182526097602090815260408084206001600160a01b0393909316845291905290205460ff1690565b6060606680546105a2906123d5565b6001600160a01b038216331415610b915760405162461bcd60e51b815260206004820152601960248201527f4552433732313a20617070726f766520746f2063616c6c657200000000000000604482015260640161069a565b336000818152606a602090815260408083206001600160a01b0387168085529252909120805460ff1916841515179055906001600160a01b03167f17307eab39ab6107e8899845ad3d59bd9653f200f220920489ca2b5937696c3183604051610bfe911515815260200190565b60405180910390a35050565b610c1433836112e4565b610c305760405162461bcd60e51b815260040161069a90612282565b610c3c848484846116cc565b50505050565b6000610c4c611b15565b600083815260cd602090815260408083205480845260cc8352818420825160a0810184528154815260018201805485518188028101880190965280865293985090959194868101949391929084015b82821015610d47578382906000526020600020018054610cba906123d5565b80601f0160208091040260200160405190810160405280929190818152602001828054610ce6906123d5565b8015610d335780601f10610d0857610100808354040283529160200191610d33565b820191906000526020600020905b815481529060010190602001808311610d1657829003601f168201915b505050505081526020019060010190610c9b565b5050509082525060028201546001600160a01b031660208201526003820154604082015260049091015460ff16606090910152919391925050565b6000818152606760205260409020546060906001600160a01b0316610e015760405162461bcd60e51b815260206004820152602f60248201527f4552433732314d657461646174613a2055524920717565727920666f72206e6f60448201526e3732bc34b9ba32b73a103a37b5b2b760891b606482015260840161069a565b6000610e1860408051602081019091526000815290565b90506000815111610e385760405180602001604052806000815250610e63565b80610e42846116ff565b604051602001610e539291906120db565b6040516020818303038152906040525b9392505050565b606060cc6000838152602001908152602001600020600101805480602002602001604051908101604052809291908181526020016000905b82821015610f4e578382906000526020600020018054610ec1906123d5565b80601f0160208091040260200160405190810160405280929190818152602001828054610eed906123d5565b8015610f3a5780601f10610f0f57610100808354040283529160200191610f3a565b820191906000526020600020905b815481529060010190602001808311610f1d57829003601f168201915b505050505081526020019060010190610ea2565b505050509050919050565b610f837fdf8b4c520ffe197c5343c6f5aec59570151ef9a492f2c624fd45ddde6135ec42336103d1565b610fc65760405162461bcd60e51b81526020600482015260146024820152732a32b63632b927232a1d103737ba1030b236b4b760611b604482015260640161069a565b600060cc6000610fd560ca5490565b815260208082019290925260400160002083518155838201518051919350611004926001850192910190611b50565b5060408201516002820180546001600160a01b0319166001600160a01b0390921691909117905560608201516003820155608082015160048201805460ff191660ff90921691909117905560ca805460010190556108a7565b600081815260cd6020908152604080832054835260cc9091529020600101805460609190819061108e90859061181a565b815481106110ac57634e487b7160e01b600052603260045260246000fd5b9060005260206000200180546110c1906123d5565b80601f01602080910402602001604051908101604052809291908181526020018280546110ed906123d5565b801561113a5780601f1061110f5761010080835404028352916020019161113a565b820191906000526020600020905b81548152906001019060200180831161111d57829003601f168201915b5050505050915050919050565b600082815260976020526040902060010154611163813361081e565b6107d08383611665565b60006111997fdf8b4c520ffe197c5343c6f5aec59570151ef9a492f2c624fd45ddde6135ec42336103d1565b6111dc5760405162461bcd60e51b81526020600482015260146024820152732a32b63632b927232a1d103737ba1030b236b4b760611b604482015260640161069a565b5060c980546001600160a01b0383166001600160a01b03199091161790556001919050565b60006001600160e01b031982166380ac58cd60e01b148061123257506001600160e01b03198216635b5e139f60e01b145b8061058d57506301ffc9a760e01b6001600160e01b031983161461058d565b60006001600160e01b03198216637965db0b60e01b148061058d575061058d82611201565b600081815260696020526040902080546001600160a01b0319166001600160a01b03841690811790915581906112ab82610a00565b6001600160a01b03167f8c5be1e5ebec7d5bd14f71427d1e84f3dd0314c0f7b2291e5b200ac8c7c3b92560405160405180910390a45050565b6000818152606760205260408120546001600160a01b031661135d5760405162461bcd60e51b815260206004820152602c60248201527f4552433732313a206f70657261746f7220717565727920666f72206e6f6e657860448201526b34b9ba32b73a103a37b5b2b760a11b606482015260840161069a565b600061136883610a00565b9050806001600160a01b0316846001600160a01b031614806113a35750836001600160a01b031661139884610625565b6001600160a01b0316145b806113d357506001600160a01b038082166000908152606a602090815260408083209388168352929052205460ff165b949350505050565b826001600160a01b03166113ee82610a00565b6001600160a01b0316146114565760405162461bcd60e51b815260206004820152602960248201527f4552433732313a207472616e73666572206f6620746f6b656e2074686174206960448201526839903737ba1037bbb760b91b606482015260840161069a565b6001600160a01b0382166114b85760405162461bcd60e51b8152602060048201526024808201527f4552433732313a207472616e7366657220746f20746865207a65726f206164646044820152637265737360e01b606482015260840161069a565b6114c3600082611276565b6001600160a01b03831660009081526068602052604081208054600192906114ec90849061237b565b90915550506001600160a01b038216600090815260686020526040812080546001929061151a908490612330565b909155505060008181526067602052604080822080546001600160a01b0319166001600160a01b0386811691821790925591518493918716917fddf252ad1be2c89b69c2b068fc378daa952ba7f163c4a11628f55a4df523b3ef91a4505050565b6115858282610afe565b6108a75761159d816001600160a01b03166014611826565b6115a8836020611826565b6040516020016115b992919061210a565b60408051601f198184030181529082905262461bcd60e51b825261069a9160040161221d565b6115e98282610afe565b6108a75760008281526097602090815260408083206001600160a01b03851684529091529020805460ff191660011790556116213390565b6001600160a01b0316816001600160a01b0316837f2f8788117e7eff1d82e926ec794901d17c78024a50270940304540a733656f0d60405160405180910390a45050565b61166f8282610afe565b156108a75760008281526097602090815260408083206001600160a01b0385168085529252808320805460ff1916905551339285917ff6391f5c32d9c69d2a47ea670b442974b53935d1edc7fd64eb21e047a839171b9190a45050565b6116d78484846113db565b6116e384848484611a08565b610c3c5760405162461bcd60e51b815260040161069a90612230565b60608161172457506040805180820190915260018152600360fc1b6020820152610554565b8160005b811561174e578061173881612410565b91506117479050600a83612348565b9150611728565b60008167ffffffffffffffff81111561177757634e487b7160e01b600052604160045260246000fd5b6040519080825280601f01601f1916602001820160405280156117a1576020820181803683370190505b5090505b84156113d3576117b660018361237b565b91506117c3600a8661242b565b6117ce906030612330565b60f81b8183815181106117f157634e487b7160e01b600052603260045260246000fd5b60200101906001600160f81b031916908160001a905350611813600a86612348565b94506117a5565b6000610e63828461242b565b6060600061183583600261235c565b611840906002612330565b67ffffffffffffffff81111561186657634e487b7160e01b600052604160045260246000fd5b6040519080825280601f01601f191660200182016040528015611890576020820181803683370190505b509050600360fc1b816000815181106118b957634e487b7160e01b600052603260045260246000fd5b60200101906001600160f81b031916908160001a905350600f60fb1b816001815181106118f657634e487b7160e01b600052603260045260246000fd5b60200101906001600160f81b031916908160001a905350600061191a84600261235c565b611925906001612330565b90505b60018111156119b9576f181899199a1a9b1b9c1cb0b131b232b360811b85600f166010811061196757634e487b7160e01b600052603260045260246000fd5b1a60f81b82828151811061198b57634e487b7160e01b600052603260045260246000fd5b60200101906001600160f81b031916908160001a90535060049490941c936119b2816123be565b9050611928565b508315610e635760405162461bcd60e51b815260206004820181905260248201527f537472696e67733a20686578206c656e67746820696e73756666696369656e74604482015260640161069a565b60006001600160a01b0384163b15611b0a57604051630a85bd0160e11b81526001600160a01b0385169063150b7a0290611a4c90339089908890889060040161217f565b602060405180830381600087803b158015611a6657600080fd5b505af1925050508015611a96575060408051601f3d908101601f19168201909252611a9391810190611ed7565b60015b611af0573d808015611ac4576040519150601f19603f3d011682016040523d82523d6000602084013e611ac9565b606091505b508051611ae85760405162461bcd60e51b815260040161069a90612230565b805181602001fd5b6001600160e01b031916630a85bd0160e11b1490506113d3565b506001949350505050565b6040518060a00160405280600081526020016060815260200160006001600160a01b0316815260200160008152602001600060ff1681525090565b828054828255906000526020600020908101928215611b9d579160200282015b82811115611b9d5782518051611b8d918491602090910190611bad565b5091602001919060010190611b70565b50611ba9929150611c2d565b5090565b828054611bb9906123d5565b90600052602060002090601f016020900481019282611bdb5760008555611c21565b82601f10611bf457805160ff1916838001178555611c21565b82800160010185558215611c21579182015b82811115611c21578251825591602001919060010190611c06565b50611ba9929150611c4a565b80821115611ba9576000611c418282611c5f565b50600101611c2d565b5b80821115611ba95760008155600101611c4b565b508054611c6b906123d5565b6000825580601f10611c7d5750611c9b565b601f016020900490600052602060002090810190611c9b9190611c4a565b50565b600067ffffffffffffffff831115611cb857611cb861246b565b611ccb601f8401601f19166020016122ff565b9050828152838383011115611cdf57600080fd5b828260208301376000602084830101529392505050565b80356001600160a01b038116811461055457600080fd5b803560ff8116811461055457600080fd5b600060208284031215611d2f578081fd5b610e6382611cf6565b60008060408385031215611d4a578081fd5b611d5383611cf6565b9150611d6160208401611cf6565b90509250929050565b600080600060608486031215611d7e578081fd5b611d8784611cf6565b9250611d9560208501611cf6565b9150604084013590509250925092565b60008060008060808587031215611dba578081fd5b611dc385611cf6565b9350611dd160208601611cf6565b925060408501359150606085013567ffffffffffffffff811115611df3578182fd5b8501601f81018713611e03578182fd5b611e1287823560208401611c9e565b91505092959194509250565b60008060408385031215611e30578182fd5b611e3983611cf6565b915060208301358015158114611e4d578182fd5b809150509250929050565b60008060408385031215611e6a578182fd5b611e7383611cf6565b946020939093013593505050565b600060208284031215611e92578081fd5b5035919050565b60008060408385031215611eab578182fd5b82359150611d6160208401611cf6565b600060208284031215611ecc578081fd5b8135610e6381612481565b600060208284031215611ee8578081fd5b8151610e6381612481565b60006020808385031215611f05578182fd5b823567ffffffffffffffff80821115611f1c578384fd5b9084019060a08287031215611f2f578384fd5b611f3960a06122ff565b823581528383013582811115611f4d578586fd5b8301601f81018813611f5d578586fd5b803583811115611f6f57611f6f61246b565b611f7d868260051b016122ff565b8181528681019450828701885b83811015611fc857813585018c603f820112611fa4578a8bfd5b611fb58d8b83013560408401611c9e565b8852509588019590880190600101611f8a565b50508387015250611fdd905060408401611cf6565b604082015260608301356060820152611ff860808401611d0d565b60808201529695505050505050565b6000815180845261201f816020860160208601612392565b601f01601f19169290920160200192915050565b600060a083018251845260208084015160a08287015282815180855260c08801915060c08160051b89010194508383019250855b818110156120955760bf19898703018352612083868551612007565b95509284019291840191600101612067565b505050505060408301516120b460408601826001600160a01b03169052565b506060830151606085015260808301516120d3608086018260ff169052565b509392505050565b600083516120ed818460208801612392565b835190830190612101818360208801612392565b01949350505050565b60007f416363657373436f6e74726f6c3a206163636f756e742000000000000000000082528351612142816017850160208801612392565b7001034b99036b4b9b9b4b733903937b6329607d1b6017918401918201528351612173816028840160208801612392565b01602801949350505050565b6001600160a01b03858116825284166020820152604081018390526080606082018190526000906121b290830184612007565b9695505050505050565b6000602080830181845280855180835260408601915060408160051b8701019250838701855b8281101561221057603f198886030184526121fe858351612007565b945092850192908501906001016121e2565b5092979650505050505050565b600060208252610e636020830184612007565b60208082526032908201527f4552433732313a207472616e7366657220746f206e6f6e20455243373231526560408201527131b2b4bb32b91034b6b83632b6b2b73a32b960711b606082015260800190565b60208082526031908201527f4552433732313a207472616e736665722063616c6c6572206973206e6f74206f6040820152701ddb995c881b9bdc88185c1c1c9bdd9959607a1b606082015260800190565b600060208252610e636020830184612033565b6000838252604060208301526113d36040830184612033565b604051601f8201601f1916810167ffffffffffffffff811182821017156123285761232861246b565b604052919050565b600082198211156123435761234361243f565b500190565b60008261235757612357612455565b500490565b60008160001904831182151516156123765761237661243f565b500290565b60008282101561238d5761238d61243f565b500390565b60005b838110156123ad578181015183820152602001612395565b83811115610c3c5750506000910152565b6000816123cd576123cd61243f565b506000190190565b600181811c908216806123e957607f821691505b6020821081141561240a57634e487b7160e01b600052602260045260246000fd5b50919050565b60006000198214156124245761242461243f565b5060010190565b60008261243a5761243a612455565b500690565b634e487b7160e01b600052601160045260246000fd5b634e487b7160e01b600052601260045260246000fd5b634e487b7160e01b600052604160045260246000fd5b6001600160e01b031981168114611c9b57600080fdfea26469706673582212205afa59627e635549af1288b9d7ddf98225c8e36c72b3b9a4218559bf22e524d764736f6c63430008030033",
  "linkReferences": {},
  "deployedLinkReferences": {}
}