{
  "_format": "hh-sol-artifact-1",
  "contractName": "TellerNFTDictionary",
  "sourceName": "contracts/TellerNftDictionary.sol",
  "abi": [
    {
      "anonymous": false,
      "inputs": [
        {
          "indexed": true,
          "internalType": "address",
          "name": "owner",
          "type": "address"
        },
        {
          "indexed": true,
          "internalType": "address",
          "name": "approved",
          "type": "address"
        },
        {
          "indexed": true,
          "internalType": "uint256",
          "name": "tokenId",
          "type": "uint256"
        }
      ],
      "name": "Approval",
      "type": "event"
    },
    {
      "anonymous": false,
      "inputs": [
        {
          "indexed": true,
          "internalType": "address",
          "name": "owner",
          "type": "address"
        },
        {
          "indexed": true,
          "internalType": "address",
          "name": "operator",
          "type": "address"
        },
        {
          "indexed": false,
          "internalType": "bool",
          "name": "approved",
          "type": "bool"
        }
      ],
      "name": "ApprovalForAll",
      "type": "event"
    },
    {
      "anonymous": false,
      "inputs": [
        {
          "indexed": true,
          "internalType": "bytes32",
          "name": "role",
          "type": "bytes32"
        },
        {
          "indexed": true,
          "internalType": "bytes32",
          "name": "previousAdminRole",
          "type": "bytes32"
        },
        {
          "indexed": true,
          "internalType": "bytes32",
          "name": "newAdminRole",
          "type": "bytes32"
        }
      ],
      "name": "RoleAdminChanged",
      "type": "event"
    },
    {
      "anonymous": false,
      "inputs": [
        {
          "indexed": true,
          "internalType": "bytes32",
          "name": "role",
          "type": "bytes32"
        },
        {
          "indexed": true,
          "internalType": "address",
          "name": "account",
          "type": "address"
        },
        {
          "indexed": true,
          "internalType": "address",
          "name": "sender",
          "type": "address"
        }
      ],
      "name": "RoleGranted",
      "type": "event"
    },
    {
      "anonymous": false,
      "inputs": [
        {
          "indexed": true,
          "internalType": "bytes32",
          "name": "role",
          "type": "bytes32"
        },
        {
          "indexed": true,
          "internalType": "address",
          "name": "account",
          "type": "address"
        },
        {
          "indexed": true,
          "internalType": "address",
          "name": "sender",
          "type": "address"
        }
      ],
      "name": "RoleRevoked",
      "type": "event"
    },
    {
      "anonymous": false,
      "inputs": [
        {
          "indexed": true,
          "internalType": "address",
          "name": "from",
          "type": "address"
        },
        {
          "indexed": true,
          "internalType": "address",
          "name": "to",
          "type": "address"
        },
        {
          "indexed": true,
          "internalType": "uint256",
          "name": "tokenId",
          "type": "uint256"
        }
      ],
      "name": "Transfer",
      "type": "event"
    },
    {
      "inputs": [],
      "name": "ADMIN",
      "outputs": [
        {
          "internalType": "bytes32",
          "name": "",
          "type": "bytes32"
        }
      ],
      "stateMutability": "view",
      "type": "function"
    },
    {
      "inputs": [],
      "name": "DEFAULT_ADMIN_ROLE",
      "outputs": [
        {
          "internalType": "bytes32",
          "name": "",
          "type": "bytes32"
        }
      ],
      "stateMutability": "view",
      "type": "function"
    },
    {
      "inputs": [],
      "name": "MINTER",
      "outputs": [
        {
          "internalType": "bytes32",
          "name": "",
          "type": "bytes32"
        }
      ],
      "stateMutability": "view",
      "type": "function"
    },
    {
      "inputs": [
        {
          "components": [
            {
              "internalType": "uint256",
              "name": "baseLoanSize",
              "type": "uint256"
            },
            {
              "internalType": "string[]",
              "name": "hashes",
              "type": "string[]"
            },
            {
              "internalType": "address",
              "name": "contributionAsset",
              "type": "address"
            },
            {
              "internalType": "uint256",
              "name": "contributionSize",
              "type": "uint256"
            },
            {
              "internalType": "uint8",
              "name": "contributionMultiplier",
              "type": "uint8"
            }
          ],
          "internalType": "struct ITellerNFT.Tier",
          "name": "newTier",
          "type": "tuple"
        }
      ],
      "name": "addTier",
      "outputs": [],
      "stateMutability": "nonpayable",
      "type": "function"
    },
    {
      "inputs": [
        {
          "internalType": "address",
          "name": "to",
          "type": "address"
        },
        {
          "internalType": "uint256",
          "name": "tokenId",
          "type": "uint256"
        }
      ],
      "name": "approve",
      "outputs": [],
      "stateMutability": "nonpayable",
      "type": "function"
    },
    {
      "inputs": [
        {
          "internalType": "address",
          "name": "owner",
          "type": "address"
        }
      ],
      "name": "balanceOf",
      "outputs": [
        {
          "internalType": "uint256",
          "name": "",
          "type": "uint256"
        }
      ],
      "stateMutability": "view",
      "type": "function"
    },
    {
      "inputs": [],
      "name": "contractURI",
      "outputs": [
        {
          "internalType": "string",
          "name": "",
          "type": "string"
        }
      ],
      "stateMutability": "view",
      "type": "function"
    },
    {
      "inputs": [
        {
          "internalType": "uint256",
          "name": "tokenId",
          "type": "uint256"
        }
      ],
      "name": "getApproved",
      "outputs": [
        {
          "internalType": "address",
          "name": "",
          "type": "address"
        }
      ],
      "stateMutability": "view",
      "type": "function"
    },
    {
      "inputs": [
        {
          "internalType": "address",
          "name": "owner",
          "type": "address"
        }
      ],
      "name": "getOwnedTokens",
      "outputs": [
        {
          "internalType": "uint256[]",
          "name": "owned_",
          "type": "uint256[]"
        }
      ],
      "stateMutability": "view",
      "type": "function"
    },
    {
      "inputs": [
        {
          "internalType": "bytes32",
          "name": "role",
          "type": "bytes32"
        }
      ],
      "name": "getRoleAdmin",
      "outputs": [
        {
          "internalType": "bytes32",
          "name": "",
          "type": "bytes32"
        }
      ],
      "stateMutability": "view",
      "type": "function"
    },
    {
      "inputs": [
        {
          "internalType": "uint256",
          "name": "index",
          "type": "uint256"
        }
      ],
      "name": "getTier",
      "outputs": [
        {
          "components": [
            {
              "internalType": "uint256",
              "name": "baseLoanSize",
              "type": "uint256"
            },
            {
              "internalType": "string[]",
              "name": "hashes",
              "type": "string[]"
            },
            {
              "internalType": "address",
              "name": "contributionAsset",
              "type": "address"
            },
            {
              "internalType": "uint256",
              "name": "contributionSize",
              "type": "uint256"
            },
            {
              "internalType": "uint8",
              "name": "contributionMultiplier",
              "type": "uint8"
            }
          ],
          "internalType": "struct ITellerNFT.Tier",
          "name": "tier_",
          "type": "tuple"
        }
      ],
      "stateMutability": "view",
      "type": "function"
    },
    {
      "inputs": [
        {
          "internalType": "uint256",
          "name": "tierIndex",
          "type": "uint256"
        }
      ],
      "name": "getTierHashes",
      "outputs": [
        {
          "internalType": "string[]",
          "name": "hashes_",
          "type": "string[]"
        }
      ],
      "stateMutability": "view",
      "type": "function"
    },
    {
      "inputs": [
        {
          "internalType": "uint256",
          "name": "tokenId",
          "type": "uint256"
        }
      ],
      "name": "getTokenTier",
      "outputs": [
        {
          "internalType": "uint256",
          "name": "index_",
          "type": "uint256"
        },
        {
          "components": [
            {
              "internalType": "uint256",
              "name": "baseLoanSize",
              "type": "uint256"
            },
            {
              "internalType": "string[]",
              "name": "hashes",
              "type": "string[]"
            },
            {
              "internalType": "address",
              "name": "contributionAsset",
              "type": "address"
            },
            {
              "internalType": "uint256",
              "name": "contributionSize",
              "type": "uint256"
            },
            {
              "internalType": "uint8",
              "name": "contributionMultiplier",
              "type": "uint8"
            }
          ],
          "internalType": "struct ITellerNFT.Tier",
          "name": "tier_",
          "type": "tuple"
        }
      ],
      "stateMutability": "view",
      "type": "function"
    },
    {
      "inputs": [
        {
          "internalType": "bytes32",
          "name": "role",
          "type": "bytes32"
        },
        {
          "internalType": "address",
          "name": "account",
          "type": "address"
        }
      ],
      "name": "grantRole",
      "outputs": [],
      "stateMutability": "nonpayable",
      "type": "function"
    },
    {
      "inputs": [
        {
          "internalType": "bytes32",
          "name": "role",
          "type": "bytes32"
        },
        {
          "internalType": "address",
          "name": "account",
          "type": "address"
        }
      ],
      "name": "hasRole",
      "outputs": [
        {
          "internalType": "bool",
          "name": "",
          "type": "bool"
        }
      ],
      "stateMutability": "view",
      "type": "function"
    },
    {
      "inputs": [
        {
          "internalType": "address[]",
          "name": "minters",
          "type": "address[]"
        }
      ],
      "name": "initialize",
      "outputs": [],
      "stateMutability": "nonpayable",
      "type": "function"
    },
    {
      "inputs": [
        {
          "internalType": "address",
          "name": "owner",
          "type": "address"
        },
        {
          "internalType": "address",
          "name": "operator",
          "type": "address"
        }
      ],
      "name": "isApprovedForAll",
      "outputs": [
        {
          "internalType": "bool",
          "name": "",
          "type": "bool"
        }
      ],
      "stateMutability": "view",
      "type": "function"
    },
    {
      "inputs": [
        {
          "internalType": "uint256",
          "name": "tierIndex",
          "type": "uint256"
        },
        {
          "internalType": "address",
          "name": "owner",
          "type": "address"
        }
      ],
      "name": "mint",
      "outputs": [],
      "stateMutability": "nonpayable",
      "type": "function"
    },
    {
      "inputs": [],
      "name": "name",
      "outputs": [
        {
          "internalType": "string",
          "name": "",
          "type": "string"
        }
      ],
      "stateMutability": "view",
      "type": "function"
    },
    {
      "inputs": [
        {
          "internalType": "uint256",
          "name": "tokenId",
          "type": "uint256"
        }
      ],
      "name": "ownerOf",
      "outputs": [
        {
          "internalType": "address",
          "name": "",
          "type": "address"
        }
      ],
      "stateMutability": "view",
      "type": "function"
    },
    {
      "inputs": [
        {
          "internalType": "bytes32",
          "name": "role",
          "type": "bytes32"
        },
        {
          "internalType": "address",
          "name": "account",
          "type": "address"
        }
      ],
      "name": "renounceRole",
      "outputs": [],
      "stateMutability": "nonpayable",
      "type": "function"
    },
    {
      "inputs": [
        {
          "internalType": "bytes32",
          "name": "role",
          "type": "bytes32"
        },
        {
          "internalType": "address",
          "name": "account",
          "type": "address"
        }
      ],
      "name": "revokeRole",
      "outputs": [],
      "stateMutability": "nonpayable",
      "type": "function"
    },
    {
      "inputs": [
        {
          "internalType": "address",
          "name": "from",
          "type": "address"
        },
        {
          "internalType": "address",
          "name": "to",
          "type": "address"
        },
        {
          "internalType": "uint256",
          "name": "tokenId",
          "type": "uint256"
        }
      ],
      "name": "safeTransferFrom",
      "outputs": [],
      "stateMutability": "nonpayable",
      "type": "function"
    },
    {
      "inputs": [
        {
          "internalType": "address",
          "name": "from",
          "type": "address"
        },
        {
          "internalType": "address",
          "name": "to",
          "type": "address"
        },
        {
          "internalType": "uint256",
          "name": "tokenId",
          "type": "uint256"
        },
        {
          "internalType": "bytes",
          "name": "_data",
          "type": "bytes"
        }
      ],
      "name": "safeTransferFrom",
      "outputs": [],
      "stateMutability": "nonpayable",
      "type": "function"
    },
    {
      "inputs": [
        {
          "internalType": "address",
          "name": "operator",
          "type": "address"
        },
        {
          "internalType": "bool",
          "name": "approved",
          "type": "bool"
        }
      ],
      "name": "setApprovalForAll",
      "outputs": [],
      "stateMutability": "nonpayable",
      "type": "function"
    },
    {
      "inputs": [
        {
          "internalType": "string",
          "name": "contractURIHash",
          "type": "string"
        }
      ],
      "name": "setContractURIHash",
      "outputs": [],
      "stateMutability": "nonpayable",
      "type": "function"
    },
    {
      "inputs": [
        {
          "internalType": "address",
          "name": "addr",
          "type": "address"
        }
      ],
      "name": "setTellerNFTAddress",
      "outputs": [
        {
          "internalType": "bool",
          "name": "",
          "type": "bool"
        }
      ],
      "stateMutability": "nonpayable",
      "type": "function"
    },
    {
      "inputs": [
        {
          "internalType": "bytes4",
          "name": "interfaceId",
          "type": "bytes4"
        }
      ],
      "name": "supportsInterface",
      "outputs": [
        {
          "internalType": "bool",
          "name": "",
          "type": "bool"
        }
      ],
      "stateMutability": "view",
      "type": "function"
    },
    {
      "inputs": [],
      "name": "symbol",
      "outputs": [
        {
          "internalType": "string",
          "name": "",
          "type": "string"
        }
      ],
      "stateMutability": "view",
      "type": "function"
    },
    {
      "inputs": [],
      "name": "tellerNFTAddress",
      "outputs": [
        {
          "internalType": "address",
          "name": "",
          "type": "address"
        }
      ],
      "stateMutability": "view",
      "type": "function"
    },
    {
      "inputs": [
        {
          "internalType": "uint256",
          "name": "tokenId",
          "type": "uint256"
        }
      ],
      "name": "tokenBaseLoanSize",
      "outputs": [
        {
          "internalType": "uint256",
          "name": "",
          "type": "uint256"
        }
      ],
      "stateMutability": "view",
      "type": "function"
    },
    {
      "inputs": [
        {
          "internalType": "uint256",
          "name": "tokenId",
          "type": "uint256"
        }
      ],
      "name": "tokenURI",
      "outputs": [
        {
          "internalType": "string",
          "name": "",
          "type": "string"
        }
      ],
      "stateMutability": "view",
      "type": "function"
    },
    {
      "inputs": [
        {
          "internalType": "address",
          "name": "from",
          "type": "address"
        },
        {
          "internalType": "address",
          "name": "to",
          "type": "address"
        },
        {
          "internalType": "uint256",
          "name": "tokenId",
          "type": "uint256"
        }
      ],
      "name": "transferFrom",
      "outputs": [],
      "stateMutability": "nonpayable",
      "type": "function"
    }
  ],
  "bytecode": "0x608060405234801561001057600080fd5b50612c00806100206000396000f3fe608060405234801561001057600080fd5b50600436106101fb5760003560e01c806395d89b411161011a578063c87b56dd116100ad578063d9d616551161007c578063d9d6165514610489578063e3477c3d146104a9578063e8a3d485146104bc578063e985e9c5146104c4578063fe6d812414610500576101fb565b8063c87b56dd14610430578063cbee53a314610443578063cf932b7c14610463578063d547741f14610476576101fb565b8063b88d4fde116100e9578063b88d4fde146103d6578063baedc1c4146103e9578063bcf54535146103fc578063c26b265f1461040f576101fb565b806395d89b41146103a0578063a217fddf146103a8578063a224cee7146103b0578063a22cb465146103c3576101fb565b80632f2ff15d116101925780636352211e116101615780636352211e1461035457806370a082311461036757806391d148541461037a57806394bf804d1461038d576101fb565b80632f2ff15d146102fb57806336568abe1461030e57806342842e0e146103215780634f062c5a14610334576101fb565b806323b872dd116101ce57806323b872dd1461027d578063248a9ca31461029057806324db57f8146102c15780632a0acc6a146102d4576101fb565b806301ffc9a71461020057806306fdde0314610228578063081812fc1461023d578063095ea7b314610268575b600080fd5b61021361020e3660046124d9565b610515565b60405190151581526020015b60405180910390f35b610230610551565b60405161021f919061288c565b61025061024b36600461249f565b6105e3565b6040516001600160a01b03909116815260200161021f565b61027b61027636600461236e565b61067d565b005b61027b61028b366004612280565b610793565b6102b361029e36600461249f565b60009081526097602052604090206001015490565b60405190815260200161021f565b6102b36102cf36600461249f565b6107c4565b6102b37fdf8b4c520ffe197c5343c6f5aec59570151ef9a492f2c624fd45ddde6135ec4281565b61027b6103093660046124b7565b6108fa565b61027b61031c3660046124b7565b610921565b61027b61032f366004612280565b61099f565b61034761034236600461249f565b6109ba565b60405161021f9190612990565b61025061036236600461249f565b610af4565b6102b3610375366004612234565b610b6b565b6102136103883660046124b7565b610bf2565b61027b61039b3660046124b7565b610c1d565b610230610cc1565b6102b3600081565b61027b6103be366004612397565b610cd0565b61027b6103d1366004612334565b610e53565b61027b6103e43660046122bb565b610f25565b61027b6103f7366004612511565b610f5d565b60c954610250906001600160a01b031681565b61042261041d36600461249f565b610fdd565b60405161021f9291906129a3565b61023061043e36600461249f565b61111d565b61045661045136600461249f565b6111f3565b60405161021f91906127e7565b61027b610471366004612544565b6112e2565b61027b6104843660046124b7565b6113d5565b61049c610497366004612234565b6113fb565b60405161021f9190612848565b6102136104b7366004612234565b61147d565b610230611511565b6102136104d236600461224e565b6001600160a01b039182166000908152606a6020908152604080832093909416825291909152205460ff1690565b6102b3600080516020612b5b83398151915281565b60006001600160e01b03198216630d04cfd960e21b148061053a575061053a82611520565b80610549575061054982611570565b90505b919050565b60606065805461056090612aa2565b80601f016020809104026020016040519081016040528092919081815260200182805461058c90612aa2565b80156105d95780601f106105ae576101008083540402835291602001916105d9565b820191906000526020600020905b8154815290600101906020018083116105bc57829003601f168201915b5050505050905090565b6000818152606760205260408120546001600160a01b03166106615760405162461bcd60e51b815260206004820152602c60248201527f4552433732313a20617070726f76656420717565727920666f72206e6f6e657860448201526b34b9ba32b73a103a37b5b2b760a11b60648201526084015b60405180910390fd5b506000908152606960205260409020546001600160a01b031690565b600061068882610af4565b9050806001600160a01b0316836001600160a01b031614156106f65760405162461bcd60e51b815260206004820152602160248201527f4552433732313a20617070726f76616c20746f2063757272656e74206f776e656044820152603960f91b6064820152608401610658565b336001600160a01b0382161480610712575061071281336104d2565b6107845760405162461bcd60e51b815260206004820152603860248201527f4552433732313a20617070726f76652063616c6c6572206973206e6f74206f7760448201527f6e6572206e6f7220617070726f76656420666f7220616c6c00000000000000006064820152608401610658565b61078e8383611595565b505050565b61079d3382611603565b6107b95760405162461bcd60e51b81526004016106589061293f565b61078e8383836116fa565b600081815260cd602090815260408083205480845260cc8352818420825160a08101845281548152600182018054855181880281018801909652808652939587959294858201939291879084015b828210156108be57838290600052602060002001805461083190612aa2565b80601f016020809104026020016040519081016040528092919081815260200182805461085d90612aa2565b80156108aa5780601f1061087f576101008083540402835291602001916108aa565b820191906000526020600020905b81548152906001019060200180831161088d57829003601f168201915b505050505081526020019060010190610812565b5050509082525060028201546001600160a01b031660208201526003820154604082015260049091015460ff1660609091015251949350505050565b60008281526097602052604090206001015461091781335b61189a565b61078e83836118fe565b6001600160a01b03811633146109915760405162461bcd60e51b815260206004820152602f60248201527f416363657373436f6e74726f6c3a2063616e206f6e6c792072656e6f756e636560448201526e103937b632b9903337b91039b2b63360891b6064820152608401610658565b61099b8282611984565b5050565b61078e83838360405180602001604052806000815250610f25565b6109c261200f565b60cc60008381526020019081526020016000206040518060a00160405290816000820154815260200160018201805480602002602001604051908101604052809291908181526020016000905b82821015610abb578382906000526020600020018054610a2e90612aa2565b80601f0160208091040260200160405190810160405280929190818152602001828054610a5a90612aa2565b8015610aa75780601f10610a7c57610100808354040283529160200191610aa7565b820191906000526020600020905b815481529060010190602001808311610a8a57829003601f168201915b505050505081526020019060010190610a0f565b5050509082525060028201546001600160a01b031660208201526003820154604082015260049091015460ff1660609091015292915050565b6000818152606760205260408120546001600160a01b0316806105495760405162461bcd60e51b815260206004820152602960248201527f4552433732313a206f776e657220717565727920666f72206e6f6e657869737460448201526832b73a103a37b5b2b760b91b6064820152608401610658565b60006001600160a01b038216610bd65760405162461bcd60e51b815260206004820152602a60248201527f4552433732313a2062616c616e636520717565727920666f7220746865207a65604482015269726f206164647265737360b01b6064820152608401610658565b506001600160a01b031660009081526068602052604090205490565b60009182526097602090815260408084206001600160a01b0393909316845291905290205460ff1690565b610c35600080516020612b5b83398151915233610388565b610c795760405162461bcd60e51b81526020600482015260156024820152742a32b63632b927232a1d103737ba1036b4b73a32b960591b6044820152606401610658565b60405162461bcd60e51b815260206004820181905260248201527f63616e6e6f74206d696e74207573696e67207468697320636f6e74726163742e6044820152606401610658565b60606066805461056090612aa2565b600054610100900460ff1680610ce9575060005460ff16155b610d055760405162461bcd60e51b8152600401610658906128f1565b600054610100900460ff16158015610d27576000805461ffff19166101011790555b610d6f6040518060400160405280600a81526020016915195b1b195c8813919560b21b815250604051806040016040528060048152602001631513919560e21b8152506119eb565b610d77611a72565b60005b82811015610de057610dce600080516020612b5b833981519152858584818110610db457634e487b7160e01b600052603260045260246000fd5b9050602002016020810190610dc99190612234565b611af6565b80610dd881612add565b915050610d7a565b50604051806060016040528060228152602001612ba9602291398051610e0e9160ce9160209091019061204a565b506040518060600160405280602e8152602001612b7b602e91398051610e3c9160cf9160209091019061204a565b50801561078e576000805461ff0019169055505050565b6001600160a01b038216331415610eac5760405162461bcd60e51b815260206004820152601960248201527f4552433732313a20617070726f766520746f2063616c6c6572000000000000006044820152606401610658565b336000818152606a602090815260408083206001600160a01b0387168085529252909120805460ff1916841515179055906001600160a01b03167f17307eab39ab6107e8899845ad3d59bd9653f200f220920489ca2b5937696c3183604051610f19911515815260200190565b60405180910390a35050565b610f2f3383611603565b610f4b5760405162461bcd60e51b81526004016106589061293f565b610f5784848484611b00565b50505050565b610f877fdf8b4c520ffe197c5343c6f5aec59570151ef9a492f2c624fd45ddde6135ec4233610388565b610fca5760405162461bcd60e51b81526020600482015260146024820152732a32b63632b927232a1d103737ba1030b236b4b760611b6044820152606401610658565b805161099b9060cf90602084019061204a565b6000610fe761200f565b600083815260cd602090815260408083205480845260cc8352818420825160a0810184528154815260018201805485518188028101880190965280865293985090959194868101949391929084015b828210156110e257838290600052602060002001805461105590612aa2565b80601f016020809104026020016040519081016040528092919081815260200182805461108190612aa2565b80156110ce5780601f106110a3576101008083540402835291602001916110ce565b820191906000526020600020905b8154815290600101906020018083116110b157829003601f168201915b505050505081526020019060010190611036565b5050509082525060028201546001600160a01b031660208201526003820154604082015260049091015460ff16606090910152919391925050565b6000818152606760205260409020546060906001600160a01b03166111975760405162461bcd60e51b815260206004820152602a60248201527f54656c6c65724e46543a2055524920717565727920666f72206e6f6e657869736044820152693a32b73a103a37b5b2b760b11b6064820152608401610658565b60006111a1611b33565b905060008151116111c157604051806020016040528060008152506111ec565b806111cb84611b42565b6040516020016111dc929190612706565b6040516020818303038152906040525b9392505050565b606060cc6000838152602001908152602001600020600101805480602002602001604051908101604052809291908181526020016000905b828210156112d757838290600052602060002001805461124a90612aa2565b80601f016020809104026020016040519081016040528092919081815260200182805461127690612aa2565b80156112c35780601f10611298576101008083540402835291602001916112c3565b820191906000526020600020905b8154815290600101906020018083116112a657829003601f168201915b50505050508152602001906001019061122b565b505050509050919050565b6112fa600080516020612b5b83398151915233610388565b61133e5760405162461bcd60e51b81526020600482015260156024820152742a32b63632b927232a1d103737ba1036b4b73a32b960591b6044820152606401610658565b600060cc600061134d60ca5490565b81526020808201929092526040016000208351815583820151805191935061137c9260018501929101906120ce565b5060408201516002820180546001600160a01b0319166001600160a01b0390921691909117905560608201516003820155608082015160048201805460ff191660ff90921691909117905560ca8054600101905561099b565b6000828152609760205260409020600101546113f18133610912565b61078e8383611984565b60c95460405163d9d6165560e01b81526001600160a01b038381166004830152606092169063d9d616559060240160006040518083038186803b15801561144157600080fd5b505afa158015611455573d6000803e3d6000fd5b505050506040513d6000823e601f3d908101601f191682016040526105499190810190612407565b60006114a97fdf8b4c520ffe197c5343c6f5aec59570151ef9a492f2c624fd45ddde6135ec4233610388565b6114ec5760405162461bcd60e51b81526020600482015260146024820152732a32b63632b927232a1d103737ba1030b236b4b760611b6044820152606401610658565b5060c980546001600160a01b0383166001600160a01b03199091161790556001919050565b606060cf805461056090612aa2565b60006001600160e01b031982166380ac58cd60e01b148061155157506001600160e01b03198216635b5e139f60e01b145b8061054957506301ffc9a760e01b6001600160e01b0319831614610549565b60006001600160e01b03198216637965db0b60e01b1480610549575061054982611520565b600081815260696020526040902080546001600160a01b0319166001600160a01b03841690811790915581906115ca82610af4565b6001600160a01b03167f8c5be1e5ebec7d5bd14f71427d1e84f3dd0314c0f7b2291e5b200ac8c7c3b92560405160405180910390a45050565b6000818152606760205260408120546001600160a01b031661167c5760405162461bcd60e51b815260206004820152602c60248201527f4552433732313a206f70657261746f7220717565727920666f72206e6f6e657860448201526b34b9ba32b73a103a37b5b2b760a11b6064820152608401610658565b600061168783610af4565b9050806001600160a01b0316846001600160a01b031614806116c25750836001600160a01b03166116b7846105e3565b6001600160a01b0316145b806116f257506001600160a01b038082166000908152606a602090815260408083209388168352929052205460ff165b949350505050565b826001600160a01b031661170d82610af4565b6001600160a01b0316146117755760405162461bcd60e51b815260206004820152602960248201527f4552433732313a207472616e73666572206f6620746f6b656e2074686174206960448201526839903737ba1037bbb760b91b6064820152608401610658565b6001600160a01b0382166117d75760405162461bcd60e51b8152602060048201526024808201527f4552433732313a207472616e7366657220746f20746865207a65726f206164646044820152637265737360e01b6064820152608401610658565b6117e2600082611595565b6001600160a01b038316600090815260686020526040812080546001929061180b908490612a48565b90915550506001600160a01b0382166000908152606860205260408120805460019290611839908490612a11565b909155505060008181526067602052604080822080546001600160a01b0319166001600160a01b0386811691821790925591518493918716917fddf252ad1be2c89b69c2b068fc378daa952ba7f163c4a11628f55a4df523b3ef91a4505050565b6118a48282610bf2565b61099b576118bc816001600160a01b03166014611c2c565b6118c7836020611c2c565b6040516020016118d8929190612735565b60408051601f198184030181529082905262461bcd60e51b82526106589160040161288c565b6119088282610bf2565b61099b5760008281526097602090815260408083206001600160a01b03851684529091529020805460ff191660011790556119403390565b6001600160a01b0316816001600160a01b0316837f2f8788117e7eff1d82e926ec794901d17c78024a50270940304540a733656f0d60405160405180910390a45050565b61198e8282610bf2565b1561099b5760008281526097602090815260408083206001600160a01b0385168085529252808320805460ff1916905551339285917ff6391f5c32d9c69d2a47ea670b442974b53935d1edc7fd64eb21e047a839171b9190a45050565b600054610100900460ff1680611a04575060005460ff16155b611a205760405162461bcd60e51b8152600401610658906128f1565b600054610100900460ff16158015611a42576000805461ffff19166101011790555b611a4a611e0e565b611a52611e0e565b611a5c8383611e78565b801561078e576000805461ff0019169055505050565b600054610100900460ff1680611a8b575060005460ff16155b611aa75760405162461bcd60e51b8152600401610658906128f1565b600054610100900460ff16158015611ac9576000805461ffff19166101011790555b611ad1611e0e565b611ad9611e0e565b611ae1611e0e565b8015611af3576000805461ff00191690555b50565b61099b82826118fe565b611b0b8484846116fa565b611b1784848484611ef6565b610f575760405162461bcd60e51b81526004016106589061289f565b606060ce805461056090612aa2565b600081815260cd6020908152604080832054835260cc90915290206001018054606091908190611b73908590612003565b81548110611b9157634e487b7160e01b600052603260045260246000fd5b906000526020600020018054611ba690612aa2565b80601f0160208091040260200160405190810160405280929190818152602001828054611bd290612aa2565b8015611c1f5780601f10611bf457610100808354040283529160200191611c1f565b820191906000526020600020905b815481529060010190602001808311611c0257829003601f168201915b5050505050915050919050565b60606000611c3b836002612a29565b611c46906002612a11565b67ffffffffffffffff811115611c6c57634e487b7160e01b600052604160045260246000fd5b6040519080825280601f01601f191660200182016040528015611c96576020820181803683370190505b509050600360fc1b81600081518110611cbf57634e487b7160e01b600052603260045260246000fd5b60200101906001600160f81b031916908160001a905350600f60fb1b81600181518110611cfc57634e487b7160e01b600052603260045260246000fd5b60200101906001600160f81b031916908160001a9053506000611d20846002612a29565b611d2b906001612a11565b90505b6001811115611dbf576f181899199a1a9b1b9c1cb0b131b232b360811b85600f1660108110611d6d57634e487b7160e01b600052603260045260246000fd5b1a60f81b828281518110611d9157634e487b7160e01b600052603260045260246000fd5b60200101906001600160f81b031916908160001a90535060049490941c93611db881612a8b565b9050611d2e565b5083156111ec5760405162461bcd60e51b815260206004820181905260248201527f537472696e67733a20686578206c656e67746820696e73756666696369656e746044820152606401610658565b600054610100900460ff1680611e27575060005460ff16155b611e435760405162461bcd60e51b8152600401610658906128f1565b600054610100900460ff16158015611ae1576000805461ffff19166101011790558015611af3576000805461ff001916905550565b600054610100900460ff1680611e91575060005460ff16155b611ead5760405162461bcd60e51b8152600401610658906128f1565b600054610100900460ff16158015611ecf576000805461ffff19166101011790555b8251611ee290606590602086019061204a565b508151610e3c90606690602085019061204a565b60006001600160a01b0384163b15611ff857604051630a85bd0160e11b81526001600160a01b0385169063150b7a0290611f3a9033908990889088906004016127aa565b602060405180830381600087803b158015611f5457600080fd5b505af1925050508015611f84575060408051601f3d908101601f19168201909252611f81918101906124f5565b60015b611fde573d808015611fb2576040519150601f19603f3d011682016040523d82523d6000602084013e611fb7565b606091505b508051611fd65760405162461bcd60e51b81526004016106589061289f565b805181602001fd5b6001600160e01b031916630a85bd0160e11b1490506116f2565b506001949350505050565b60006111ec8284612af8565b6040518060a00160405280600081526020016060815260200160006001600160a01b0316815260200160008152602001600060ff1681525090565b82805461205690612aa2565b90600052602060002090601f01602090048101928261207857600085556120be565b82601f1061209157805160ff19168380011785556120be565b828001600101855582156120be579182015b828111156120be5782518255916020019190600101906120a3565b506120ca929150612127565b5090565b82805482825590600052602060002090810192821561211b579160200282015b8281111561211b578251805161210b91849160209091019061204a565b50916020019190600101906120ee565b506120ca92915061213c565b5b808211156120ca5760008155600101612128565b808211156120ca5760006121508282612159565b5060010161213c565b50805461216590612aa2565b6000825580601f106121775750611af3565b601f016020900490600052602060002090810190611af39190612127565b600067ffffffffffffffff8311156121af576121af612b2e565b6121c2601f8401601f19166020016129bc565b90508281528383830111156121d657600080fd5b828260208301376000602084830101529392505050565b80356001600160a01b038116811461054c57600080fd5b600082601f830112612214578081fd5b6111ec83833560208501612195565b803560ff8116811461054c57600080fd5b600060208284031215612245578081fd5b6111ec826121ed565b60008060408385031215612260578081fd5b612269836121ed565b9150612277602084016121ed565b90509250929050565b600080600060608486031215612294578081fd5b61229d846121ed565b92506122ab602085016121ed565b9150604084013590509250925092565b600080600080608085870312156122d0578081fd5b6122d9856121ed565b93506122e7602086016121ed565b925060408501359150606085013567ffffffffffffffff811115612309578182fd5b8501601f81018713612319578182fd5b61232887823560208401612195565b91505092959194509250565b60008060408385031215612346578182fd5b61234f836121ed565b915060208301358015158114612363578182fd5b809150509250929050565b60008060408385031215612380578081fd5b612389836121ed565b946020939093013593505050565b600080602083850312156123a9578182fd5b823567ffffffffffffffff808211156123c0578384fd5b818501915085601f8301126123d3578384fd5b8135818111156123e1578485fd5b8660208260051b85010111156123f5578485fd5b60209290920196919550909350505050565b60006020808385031215612419578182fd5b825167ffffffffffffffff81111561242f578283fd5b8301601f8101851361243f578283fd5b805161245261244d826129ed565b6129bc565b80828252848201915084840188868560051b8701011115612471578687fd5b8694505b83851015612493578051835260019490940193918501918501612475565b50979650505050505050565b6000602082840312156124b0578081fd5b5035919050565b600080604083850312156124c9578182fd5b82359150612277602084016121ed565b6000602082840312156124ea578081fd5b81356111ec81612b44565b600060208284031215612506578081fd5b81516111ec81612b44565b600060208284031215612522578081fd5b813567ffffffffffffffff811115612538578182fd5b6116f284828501612204565b60006020808385031215612556578182fd5b823567ffffffffffffffff8082111561256d578384fd5b9084019060a08287031215612580578384fd5b61258a60a06129bc565b82358152838301358281111561259e578586fd5b83019150601f820187136125b0578485fd5b81356125be61244d826129ed565b81815285810190848701885b848110156125f3576125e18c8a84358a0101612204565b845292880192908801906001016125ca565b505083870152506126089050604084016121ed565b60408201526060830135606082015261262360808401612223565b60808201529695505050505050565b6000815180845261264a816020860160208601612a5f565b601f01601f19169290920160200192915050565b600060a083018251845260208084015160a08287015282815180855260c08801915060c08160051b89010194508383019250855b818110156126c05760bf198987030183526126ae868551612632565b95509284019291840191600101612692565b505050505060408301516126df60408601826001600160a01b03169052565b506060830151606085015260808301516126fe608086018260ff169052565b509392505050565b60008351612718818460208801612a5f565b83519083019061272c818360208801612a5f565b01949350505050565b60007f416363657373436f6e74726f6c3a206163636f756e74200000000000000000008252835161276d816017850160208801612a5f565b7001034b99036b4b9b9b4b733903937b6329607d1b601791840191820152835161279e816028840160208801612a5f565b01602801949350505050565b6001600160a01b03858116825284166020820152604081018390526080606082018190526000906127dd90830184612632565b9695505050505050565b6000602080830181845280855180835260408601915060408160051b8701019250838701855b8281101561283b57603f19888603018452612829858351612632565b9450928501929085019060010161280d565b5092979650505050505050565b6020808252825182820181905260009190848201906040850190845b8181101561288057835183529284019291840191600101612864565b50909695505050505050565b6000602082526111ec6020830184612632565b60208082526032908201527f4552433732313a207472616e7366657220746f206e6f6e20455243373231526560408201527131b2b4bb32b91034b6b83632b6b2b73a32b960711b606082015260800190565b6020808252602e908201527f496e697469616c697a61626c653a20636f6e747261637420697320616c72656160408201526d191e481a5b9a5d1a585b1a5e995960921b606082015260800190565b60208082526031908201527f4552433732313a207472616e736665722063616c6c6572206973206e6f74206f6040820152701ddb995c881b9bdc88185c1c1c9bdd9959607a1b606082015260800190565b6000602082526111ec602083018461265e565b6000838252604060208301526116f2604083018461265e565b604051601f8201601f1916810167ffffffffffffffff811182821017156129e5576129e5612b2e565b604052919050565b600067ffffffffffffffff821115612a0757612a07612b2e565b5060051b60200190565b60008219821115612a2457612a24612b18565b500190565b6000816000190483118215151615612a4357612a43612b18565b500290565b600082821015612a5a57612a5a612b18565b500390565b60005b83811015612a7a578181015183820152602001612a62565b83811115610f575750506000910152565b600081612a9a57612a9a612b18565b506000190190565b600181811c90821680612ab657607f821691505b60208210811415612ad757634e487b7160e01b600052602260045260246000fd5b50919050565b6000600019821415612af157612af1612b18565b5060010190565b600082612b1357634e487b7160e01b81526012600452602481fd5b500690565b634e487b7160e01b600052601160045260246000fd5b634e487b7160e01b600052604160045260246000fd5b6001600160e01b031981168114611af357600080fdfef0887ba65ee2024ea881d91b74c2450ef19e1557f03bed3ea9f16b037cbe2dc9516d5741665146467770747a5255436446326342464a686342326766484a4d64375451743634645a5579736b335268747470733a2f2f676174657761792e70696e6174612e636c6f75642f697066732fa26469706673582212205044cba830d33ac6baae1f775d8e672f69ce0ac371eff9ac0fa4e66aaea9978a64736f6c63430008030033",
  "linkReferences": {},
  "deployedLinkReferences": {}
}